:020000040800F2
:1000000000000220E92700085D0E00085F0E0008CE
:10001000610E0008630E0008650E00080000000075
:10002000000000000000000000000000670E000853
:10003000690E0008000000006B0E00086D0E00083D
:10004000392800083928000839280008392800080C
:10005000392800083928000825090008392800082F
:1000600039280008392800083928000839280008EC
:1000700039280008392800083928000839280008DC
:10008000750E0008392800083928000839280008AA
:1000900039280008392800083928000839280008BC
:1000A00039280008392800083928000839280008AC
:1000B000392800083928000839280008392800089C
:1000C000392800083928000839280008392800088C
:1000D000392800083928000839280008392800087C
:1000E000392800083928000839280008392800086C
:1000F000392800083928000839280008392800085C
:10010000392800083928000839280008392800084B
:10011000392800083928000839280008392800083B
:10012000392800083928000839280008392800082B
:1001300039280008000000000000000039280008ED
:10014000392800083928000839280008392800080B
:1001500039280008392800083928000839280008FB
:1001600039280008392800083928000839280008EB
:100170003928000839280008392800080000000044
:100180000000000039280008000000000000000006
:10019000392800080000000000000000392800088D
:1001A00000000000000000000000000039280008E6
:1001B000392800083928000839280008392800089B
:0401C00039280008D2
:1001C40010B5054C237833B9044B13B10448AFF38D
:1001D40000800123237010BD4C00002000000000AB
:1001E4009428000808B5034B1BB103490348AFF337
:1001F400008008BD00000000500000209428000882
:1002040053B94AB9002908BF00281CBF4FF0FF3179
:100214004FF0FF3000F088B9ADF1080C6DE904CE61
:1002240000F006F8DDF804E0DDE9022304B07047CD
:100234002DE9F047089D8E4604468846002B4AD196
:100244008A42174662D9B2FA82F64EB1C6F1200349
:1002540001FA06F820FA03F3B74043EA0808B44069
:100264004FEA174E1FFA87FCB8FBFEF1230C0EFB76
:10027400118843EA084301FB0CF29A4209D9FB189E
:1002840001F1FF3080F0EA809A4240F2E7800239BF
:100294003B449A1AA3B2B2FBFEF00EFB102243EACF
:1002A400024300FB0CFC9C4509D9FB1800F1FF320A
:1002B40080F0D6809C4540F2D3803B44023840EA2B
:1002C4000140A3EB0C0300211DB1F3400022C5E95A
:1002D4000032BDE8F0878B4205D90DB1C5E90001B4
:1002E40000210846F5E7B3FA83F1002946D17345A6
:1002F40002D3824200F20581841A6EEB03020120CC
:100304009046002DE5D0C5E90048E2E7002A00F058
:100314009080B2FA82F6002E40F0A4808A1A030C70
:100324004FEA174E80B2BCB20121B2FBFEFC0EFBB9
:100334001C2243EA024304FB0CF29A4207D9FB183D
:100344000CF1FF3802D29A4200F2E080C4469B1AB4
:10035400B3FBFEF20EFB123340EA034302FB04F448
:100364009C4207D9FB1802F1FF3002D29C4200F2F2
:10037400CA8002461B1B42EA0C40A5E7C1F12006D5
:100384008B4022FA06F71F430EFA01F420FA06F313
:100394002EFA06FE4FEA1749234300FA01F81FFA22
:1003A40087FCBEFBF9F01C0C09FB10EE44EA0E447A
:1003B40000FB0CFEA64502FA01F209D93C1900F132
:1003C400FF3A80F09C80A64540F2998002383C4474
:1003D400A4EB0E041FFA83FEB4FBF9F309FB1344E8
:1003E4004EEA044403FB0CFCA44508D93C1903F170
:1003F400FF3E80F08280A4457FD9023B3C4443EA1F
:100404000040A4EB0C04A0FB02EC64457346E146F7
:1004140062D35FD05DB1B8EB030264EB090404FA64
:1004240006F622FA01F31E43CC40C5E9006400211C
:100434004FE7B1FBF2FC010C41EA0E4180B240EA05
:1004440001423B4638463C46B846BE462026B1FBF0
:10045400F7F1A2EB080241EA0C4166E7014618E70E
:1004640010462CE7C6F120022EFA02F3B740B14041
:1004740020FA02F24FEA174E0A43B3FBFEF8BCB26D
:100484000EFB1833110C41EA034108FB04F9B04098
:1004940089454FEA104380B23ED9791808F1FF3CF0
:1004A40001D289451FD8A1EB0901B1FBFEF909FB73
:1004B40004F80EFB191192B242EA0142424529D2D4
:1004C400BA1809F1FF31C4D24245C2D2A9F10201DE
:1004D4003A44BEE7F0459DD2BEEB02036CEB070C39
:1004E4000138E14696E7A7EB09094944A8F1020C53
:1004F400B1FBFEF909FB04F8DBE773467FE75046DE
:1005040066E70846FDE63B44023A33E7ACF1020CE9
:100514003B441CE749469CE7A1EB0901C446B1FBF7
:10052400FEF909FB04F8C4E7704700BF2DE9F04F5A
:1005340089B00024039404940594069407940094C9
:100544002F4B1A6B42F080021A631A6B02F080027E
:100554000092009A01941A6B42F001021A631A6B1A
:1005640002F001020192019A02941A6B42F0020213
:100574001A631B6B03F002030293029B4FF4404B7C
:10058400CDF80CB001260496DFF87CA003A95046F0
:1005940001F01EFD4FF44079CDF80C90DFF86C802B
:1005A40003A9404601F014FD4FF410470397154D7D
:1005B40003A9284601F00CFD22465946504601F095
:1005C400F7FD22464946404601F0F2FD22463946EF
:1005D400284601F0EDFD03964FF488130493059625
:1005E40003A9284601F0F4FC22460221062002F069
:1005F40061F8062002F06EF809B0BDE8F08F00BF84
:10060400003802400000024000080240000402409A
:1006140000B583B000210191094B1A6B42F400121A
:100624001A631B6B03F400130193019B0A46102009
:1006340002F040F8102002F04DF803B05DF804FB1E
:100644000038024072B6FEE700B58FB000230A936B
:100654000B930C930D9308930993019302930393C3
:10066400049305930693079335484FF08042026044
:10067400436083604FF0FF32C2600361836100F026
:1006840003FE002850D14FF480530A930AA92C4842
:1006940000F060FF002849D1294800F021FE00281D
:1006A40046D100230893099308A9254801F0E4F8EA
:1006B40000283FD10022019202920392059201A9DF
:1006C4001F4800F09DFE002836D1002300931D4AE8
:1006D400116B41F400111163126B02F400120092C9
:1006E400009A1948194A02604FF0C06242604022E1
:1006F4008260C3604FF4806202614FF480524261B1
:100704004FF4804282614FF48072C2614FF4003230
:100714000262436201F0DEFD80B9094A0A4B53626A
:100724009A630FB05DF804FBFFF78CFFFFF78AFFB5
:10073400FFF788FFFFF786FFFFF784FFFFF782FFCD
:100744001801002000380240700000208860024038
:1007540000B58FB000230A930B930C930D93089369
:1007640009930193029303930493059306930793C8
:100774001E481F4A02604360836040F6FF72C260F5
:100784000361836100F080FD28BB4FF480530A931A
:100794000AA9164800F0DEFEF8B9144800F0CCFDB2
:1007A400E8B900230893099308A9104801F064F8F4
:1007B400B8B960230193002302930393059308229D
:1007C40001A90A4800F04BFE68B9084800F0C0FBD4
:1007D4000FB05DF804FBFFF735FFFFF733FFFFF7BA
:1007E40031FFFFF72FFFFFF72DFF00BFD0000020E0
:1007F4000004004000B595B03422002107A802F09F
:100804001AF8002302930393049305930693009329
:10081400194A116C41F080511164126C02F080523B
:100824000092009A019315490A6822F4404242F466
:1008340080420A600A6802F440420192019A02224C
:10084400079201220A9210220B920D9307A801F03D
:100854009DF968B90F230293002103910491059136
:10086400069102A801F04EF820B915B05DF804FB1A
:10087400FFF7E8FEFFF7E6FE003802400070004094
:1008840008B501F065FFFFF7B5FFFFF74FFEFFF76F
:10089400BFFEFFF7D9FEFFF75BFF194C204600F0BF
:1008A4004BFC0821204600F065FF164D2B68013BE8
:1008B400154CE360204600F0E7FC22682B685B08D7
:1008C40053630021204600F0D3FE4FF480430F4AC7
:1008D4000F49104801F064FD2268D36843F40073A3
:1008E400D36000F081FA012000F0F6F91E2001F037
:1008F4005BFF094800F0E4F9084800F0E1F9FEE77D
:10090400D00000203C000020180100203C040040DE
:10091400E8A8020870000020AC280008B8280008E5
:1009240008B501F03BFF834B1B68C31A312B27D951
:10093400804B1860804B1A68D36823F40073D3602B
:100944007E4801F062FD7D4B93F83530DBB2012B1C
:10095400F9D17B4A136801337A4981FB0301A1EB86
:10096400E37101EB4101A3EB41011160052928D892
:10097400DFE811F00A00470065008300A100BF0012
:10098400012001F01DFC3BE06B4B1B68186A41F22F
:100994001112104208D1186A40F24442104203D1A5
:1009A4001A6822F001021A6063480368664A1268F2
:1009B400013ADA62C26000225A621A6842F0010205
:1009C4001A604FF48043614A614850F821105B4833
:1009D40001F0E6FC002840F0AA80574B1A68D3685F
:1009E40043F40073D360012000F076F9544B1A6885
:1009F400584B53F8220000F063F9012001F0E0FBAA
:100A040008BD4D4B1B68186A41F21112104208D1FF
:100A1400186A40F24442104203D11A6822F00102DB
:100A24001A6045480368484A1268013ADA62C260AB
:100A340000225A621A6842F001021A60C1E73E4B72
:100A44001B68186A41F21112104208D1186A40F268
:100A54004442104203D11A6822F001021A60364857
:100A64000368394A1268013ADA62C26000225A62A3
:100A74001A6842F001021A60A3E72F4B1B68186A38
:100A840041F21112104208D1186A40F24442104255
:100A940003D11A6822F001021A60274803682E4A1B
:100AA4001268013ADA62C26000225A621A6842F09D
:100AB40001021A6085E7204B1B68186A41F2111283
:100AC400104208D1186A40F24442104203D11A6815
:100AD40022F001021A6018480368204A1268013A99
:100AE400DA62C26000225A621A6842F001021A6095
:100AF40067E7114B1B68186A41F21112104208D1C2
:100B0400186A40F24442104203D11A6822F00102EA
:100B14001A6009480368124A1268013ADA62C2602C
:100B240000225A621A6842F001021A6049E7FFF78C
:100B340089FD00BF6C000020180100207000002017
:100B440068000020ABAAAA2A3C0000203C04004014
:100B5400180000200000002038000020340000208D
:100B64003000002082B000EB40000023019304E039
:100B740000BF00BF019B01330193019B8342F7D364
:100B840002B0704710B51420FFF7ECFF094CA369BD
:100B940043F40043A3611420FFF7E4FFA36943F087
:100BA4000043A3611420FFF7DDFFA36943F400436E
:100BB400A36110BD0008024010B504463D4A936984
:100BC40043F48043936110F0800F41D13A4A936912
:100BD40043F00043936114F0400F40D0364A9369C8
:100BE40043F48053936114F0200F3ED0334A936949
:100BF40043F40073936114F0100F3CD02F4A9369AF
:100C040043F480739361FFF7BDFF14F0080F38D0ED
:100C1400294A936943F40043936114F0040F36D0D6
:100C2400254A936943F48053936114F0020F34D03E
:100C3400224A936943F40073936114F0010F32D094
:100C44001E4A936943F480739361FFF79BFF10BDC1
:100C5400A2F50062936943F400439361BBE7164A2B
:100C6400936943F080539361BDE7144A936943F059
:100C740000739361BFE7114A936943F080739361F2
:100C8400C1E70D4A936943F000439361C5E70A4AFB
:100C9400936943F080539361C7E7084A936943F02B
:100CA40000739361C9E7054A936943F080739361C4
:100CB400CBE700BF000802400000024000040240ED
:100CC40038B50546002403E0FFF776FF0134E4B2AB
:100CD400285D0028F8D138BD10B504463F4A936911
:100CE40043F08043936110F0800F45D13C4A9369EF
:100CF40043F00043936114F0400F44D0384A9369A1
:100D040043F48053936114F0200F42D0354A936921
:100D140043F40073936114F0100F40D0314A936987
:100D240043F480739361FFF72DFF14F0080F3CD058
:100D34002B4A936943F40043936114F0040F3AD0AF
:100D4400274A936943F48053936114F0020F38D017
:100D5400244A936943F40073936114F0010F36D06D
:100D6400204A936943F480739361FFF70BFF40F6C5
:100D7400B830FFF7F7FE10BDA2F50062936943F4A3
:100D840000439361B7E7164A936943F08053936134
:100D9400B9E7144A936943F000739361BBE7114ABE
:100DA400936943F080739361BDE70D4A936943F0FF
:100DB40000439361C1E70A4A936943F08053936106
:100DC400C3E7084A936943F000739361C5E7054A92
:100DD400936943F080739361C7E700BF0008024042
:100DE400000002400004024008B5194B1A6B42F09F
:100DF40001021A631A6B42F002021A631A6B42F080
:100E040004021A63134A136843F08243136002F521
:100E14008062136843F4A023136002F580621368B0
:100E240043F0A043136047F23050FFF79BFE33209A
:100E3400FFF752FF3220FFF74FFF0C20FFF74CFF64
:100E44002820FFF749FF0120FFF746FF08BD00BF38
:100E54000038024000000240FEE7FEE7FEE7FEE73E
:100E6400FEE770477047704708B501F08BFC08BD7A
:100E740008B5024801F0DCFA08BD00BF700000208C
:100E840082B0002100910B4B5A6C42F480425A64A8
:100E94005A6C02F480420092009A01911A6C42F05A
:100EA40080521A641B6C03F080530193019B02B0BF
:100EB400704700BF0038024010B582B00368B3F138
:100EC400804F04D01E4A93422CD002B010BD044679
:100ED400002300931B4A116C41F001011164126C50
:100EE40002F001020092009A1748184A02604FF07B
:100EF400C06242608360C3604FF4806202614FF459
:100F0400805242614FF480428261C3610362436252
:100F140001F0E0F918B90C4B63629C63D5E7FFF765
:100F240091FBF8E700230193064B1A6C42F002028E
:100F34001A641B6C03F002030193019BC5E700BF15
:100F44000004004000380240700000208860024025
:100F540000B587B000230193029303930493059390
:100F640002680E4B9A4202D007B05DF804FB0023DE
:100F740000930B4B1A6B42F002021A631B6B03F0D3
:100F840002030093009B0123019302230293059320
:100F940001A9044801F01CF8E6E700BF0004004082
:100FA400003802400004024030B4036A026A22F0AE
:100FB400010202624268846924F0730C0C6844EAFA
:100FC4000C0423F0020C8B6843EA0C03114DA84275
:100FD40003D005F58065A84205D123F00803CD6848
:100FE4002B4323F004030B4DA84203D005F5806581
:100FF400A84207D122F440724D6945EA020C8A697D
:1010040042EA0C02426084614A684263036230BC73
:10101400704700BF0000014030B4036A026A22F442
:10102400807202624268C46924F0730C0C6844EA5A
:101034000C0523F400738C6843EA0423114CA0428A
:1010440003D004F58064A04206D123F40063CC6885
:1010540043EA042323F480630A4CA04203D004F53A
:101064008064A04207D122F440524C6942EA04123F
:101074008C6942EA04124260C5614A68C263036231
:1010840030BC70470000014030B4036A026A22F4A5
:10109400805202624468C26922F4E6420D6842EA60
:1010A400052223F400538D6843EA0533094DA84211
:1010B40003D005F58065A84204D124F480444D6929
:1010C40044EA85144460C2614A680264036230BC25
:1010D400704700BF0000014010B4036A046A24F0A2
:1010E40001040462846924F0F00C4CEA021223F037
:1010F4000A030B43826103625DF8044B704710B42A
:10110400036A046A24F010040462846924F4704CB1
:101114004CEA023223F0A00343EA01138261036222
:101124005DF8044B7047836823F070030B4343F06E
:10113400070383607047000090F83D30DBB2012B59
:1011440032D1022380F83D300368194A934220D0FB
:10115400B3F1804F1DD0A2F57C42934219D002F521
:101164008062934215D002F58062934211D002F559
:10117400784293420DD002F57052934209D0A2F501
:101184009432934205D01A6842F001021A6000209A
:1011940070479A6802F00702062A07D01A6842F0DC
:1011A40001021A6000207047012070470020704738
:1011B40000000140704770470368324A904212D0E1
:1011C400B0F1804F0FD0A2F57C4290420BD002F5D3
:1011D4008062904207D002F58062904203D002F50B
:1011E4007842904203D123F070034A681343254A9E
:1011F40090422AD0B0F1804F27D0A2F57C42904291
:1012040023D002F5806290421FD002F580629042A2
:101214001BD002F57842904217D002F570529042EA
:1012240013D002F5806290420FD002F580629042A2
:101234000BD0A2F59832904207D002F5806290421A
:1012440003D002F58062904203D123F44073CA684C
:10125400134323F080034A6913438A68C2620A680D
:101264008262084A904203D002F58062904201D122
:101274000A690263026842F00402026001224261C8
:10128400036070470000014040B310B5044690F875
:101294003D30F3B1022384F83D30214651F8040B6C
:1012A400FFF78AFF012384F8463084F83E3084F83F
:1012B4003F3084F8403084F8413084F8423084F878
:1012C400433084F8443084F8453084F83D300020BD
:1012D40010BD80F83C30FFF7EFFDDBE701207047DD
:1012E40040B310B5044690F83D30F3B1022384F8BE
:1012F4003D30214651F8040BFFF75EFF012384F8CB
:10130400463084F83E3084F83F3084F8403084F826
:10131400413084F8423084F8433084F8443084F80F
:10132400453084F83D30002010BD80F83C30FFF794
:1013340041FFDBE70120704740B310B5044690F845
:101344003D30F3B1022384F83D30214651F8040BBB
:10135400FFF732FF012384F8463084F83E3084F8E6
:101364003F3084F8403084F8413084F8423084F8C7
:10137400433084F8443084F8453084F83D3000200C
:1013840010BD80F83C30FFF716FFDBE70120704703
:1013940030B4036A026A22F010020262446882696D
:1013A40022F4E6420D6842EA052223F020038D6808
:1013B40043EA0513114DA84203D005F58065A84200
:1013C40006D123F08003CD6843EA051323F04003DC
:1013D4000A4DA84203D005F58065A84207D124F43C
:1013E40040644D6944EA85048D6944EA8504446097
:1013F40082614A688263036230BC70470000014026
:1014040090F83C30012B28D010B50446012380F815
:101414003C300C2A1CD8DFE802F0071B1B1B0C1BFA
:101424001B1B111B1B1B16000068FFF7BDFD0020D2
:101434000FE00068FFF7ACFF00200AE00068FFF748
:10144400EBFD002005E00068FFF71EFE002000E031
:101454000120002384F83C3010BD0220704738B5C9
:1014640090F83C30012B66D004460D46012380F8E9
:101474003C300C2A5AD8DFE802F0075959591B5955
:1014840059593059595944000068FFF78DFD2268B5
:10149400936943F0080393612268936923F004037A
:1014A40093612268936929690B43936100203EE0AC
:1014B4000068FFF76DFF2268936943F4006393614A
:1014C4002268936923F4806393612268936929698C
:1014D40043EA01239361002029E00068FFF79CFDA3
:1014E4002268D36943F00803D3612268D36923F0E7
:1014F4000403D3612268D36929690B43D3610020B3
:1015040015E00068FFF7C0FD2268D36943F4006367
:10151400D3612268D36923F48063D3612268D369D9
:10152400296943EA0123D361002000E0012000235C
:1015340084F83C3038BD0220FCE710B4846824F4FD
:101544007F4C42EA03220A4342EA0C0282605DF8BD
:10155400044B704790F83C30012B78D010B504460A
:10156400012380F83C30022380F83D300268936800
:1015740023F47F4323F0770393600B68602B4CD0F4
:1015840023D8402B54D011D8202B03D00AD80BB128
:10159400102B05D119462068FFF7C5FD002028E06F
:1015A400012026E0302BF5D0012022E0502B0AD177
:1015B400CA6849680068FFF78FFD50212068FFF76B
:1015C400B2FD002015E0012013E0B3F5805F3AD0AE
:1015D400B3F5005F14D0702B37D1CB684A688968A3
:1015E4000068FFF7AAFF2268936843F077039360CB
:1015F4000020012384F83D30002384F83C3010BDE2
:10160400CB684A6889680068FFF797FF2268936887
:1016140043F4804393600020EBE7CA68496800689C
:10162400FFF76DFD60212068FFF77DFD0020E0E7F6
:10163400CA6849680068FFF74FFD40212068FFF73A
:1016440072FD0020D5E70020D3E70120D1E7022076
:10165400704701F01F014FF0010C0CFA01FC036A02
:1016640023EA0C030362036A8A401343036270474C
:1016740010B504460846002942D194F83E30DBB246
:10168400013B18BF0123002B6ED1002851D1022346
:1016940084F83E30012201462068FFF7DAFF236810
:1016A400334A934203D002F58062934203D15A6CC9
:1016B40042F400425A6423682D4A934249D0B3F15C
:1016C400804F46D0A2F57C42934242D002F580621C
:1016D40093423ED002F5806293423AD002F57842BA
:1016E400934236D002F57052934232D0A2F594322E
:1016F40093422ED01A6842F001021A60002032E0B0
:10170400042908D008290DD094F84130DBB2013BFC
:1017140018BF0123B7E794F83F30DBB2013B18BF91
:101724000123B0E794F84030DBB2013B18BF01233A
:10173400A9E7042805D0082807D0022384F84130FB
:10174400A8E7022384F83F30A4E7022384F840305A
:10175400A0E79A6802F00702062A07D01A6842F046
:1017640001021A60002010BD0120FCE70020FAE706
:101774000000014010B504460846002942D194F8FF
:101784003E30DBB2013B18BF0123002B6ED1002891
:1017940051D1022384F83E30012201462068FFF72C
:1017A40058FF2368334A934203D002F58062934280
:1017B40003D15A6C42F400425A6423682D4A93427E
:1017C40049D0B3F1804F46D0A2F57C42934242D037
:1017D40002F5806293423ED002F5806293423AD091
:1017E40002F57842934236D002F57052934232D0D9
:1017F400A2F5943293422ED01A6842F001021A6084
:10180400002032E0042908D008290DD094F8413092
:10181400DBB2013B18BF0123B7E794F83F30DBB2DA
:10182400013B18BF0123B0E794F84030DBB2013B21
:1018340018BF0123A9E7042805D0082807D00223EC
:1018440084F84130A8E7022384F83F30A4E7022358
:1018540084F84030A0E79A6802F00702062A07D00D
:101864001A6842F001021A60002010BD0120FCE752
:101874000020FAE70000014090F83C20012A3DD006
:1018840010B40346012280F83C20022280F83D2057
:1018940002685068946820F0700C086840EA0C00F4
:1018A40050601A68164882421AD0B2F1804F17D09D
:1018B400A0F57C40824213D000F5806082420FD0B4
:1018C40000F5806082420BD000F57840824207D058
:1018D40000F57050824203D0A0F59430824204D1C6
:1018E40024F08004496821439160012283F83D205B
:1018F400002083F83C005DF8044B704702207047D9
:1019040000000140002800F09B8070B50D4604469D
:101914004F4B1B6803F00F038B4208D2CBB24C4AE7
:101924001370136803F00F038B4240F08B8023681D
:1019340013F0020F17D013F0040F04D0454A936834
:1019440043F4E0539360236813F0080F04D0414A32
:10195400936843F4604393603E4A936823F0F00332
:10196400A1680B439360236813F0010F32D06368BE
:10197400012B21D09A1E012A25D9364A126812F069
:10198400020F61D033498A6822F0030213438B604B
:1019940000F004FF06462F4B9B6803F00C036268BB
:1019A400B3EB820F16D000F0F9FE801B41F28833AE
:1019B4009842F0D9032042E0264A126812F4003F0C
:1019C400E0D101203BE0234A126812F0007FD9D114
:1019D400012034E01E4B1B6803F00F03AB4207D910
:1019E400EAB21B4B1A701B6803F00F03AB422DD1F4
:1019F400236813F0040F06D0164A936823F4E053C7
:101A0400E1680B439360236813F0080F07D0114A71
:101A1400936823F46043216943EAC103936000F0AF
:101A240021F80C4B9B68C3F303130B4AD35CD840D7
:101A34000A4B18600A4B186800F064FE002070BD61
:101A4400012070470120FAE70120F8E70120F6E7BA
:101A5400003C024000380240F028030848000020FF
:101A64004400002008B5464B9B6803F00C03082B88
:101A740005D00C2B43D0042B7FD1424819E0404BB6
:101A84005A6802F03F025B6813F4800F12D03C4B9B
:101A94005968C1F388113B480023A1FB0001FEF7FC
:101AA400AFFB374B5B68C3F3014301335B00B0FB0F
:101AB400F3F008BD324B5868C0F388104FEA401C5D
:101AC400BCEB000C6EEB0E0E4FEA8E1343EA9C63E4
:101AD4004FEA8C11B1EB0C0163EB0E03DB0043EA1C
:101AE4005173C90011EB000C43F100039902002368
:101AF4004FEA8C2041EA9C51FEF782FBD1E7204B50
:101B04005A6802F03F025B6813F4800F10D01C4B3C
:101B14005968C1F388111B480023A1FB0001FEF79B
:101B24006FFB174B5B68C3F30273B0FBF3F0C0E7C2
:101B3400134B5868C0F388104FEA401CBCEB000CF0
:101B44006EEB0E0E4FEA8E1343EA9C634FEA8C1140
:101B5400B1EB0C0163EB0E03DB0043EA5173C900E4
:101B640011EB000C43F10003990200234FEA8C208F
:101B740041EA9C51FEF744FBD3E7034899E700BFD1
:101B84000038024040787D010024F400002800F071
:101B9400018270B582B00446036813F0010F41D08E
:101BA400994B9B6803F00C03042B32D0964B9B6833
:101BB40003F00C03082B27D0934B9B6803F00C0312
:101BC4000C2B59D06368B3F5803F5BD0B3F5A02FDD
:101BD4005ED08D4B1A6822F480321A601A6822F49F
:101BE40080221A606368002B5CD000F0D7FD0546A4
:101BF400854B1B6813F4003F14D100F0CFFD401B4C
:101C04006428F5D90320CCE17F4B5B6813F4800F83
:101C1400D2D07D4B1B6813F4003F03D06368002BC4
:101C240000F0BA81236813F0020F60D0764B9B68F2
:101C340013F00C0F4AD0744B9B6803F00C03082B71
:101C44003FD0714B9B6803F00C030C2B69D0E36805
:101C5400002B75D06D4B01221A6000F09FFD0546E4
:101C6400694B1B6813F0020F61D100F097FD401B14
:101C74000228F5D9032094E1634B5B6813F4800FC9
:101C8400A0D0C6E7604A136843F480331360A9E721
:101C94005D4B1A6842F480221A601A6842F480325A
:101CA4001A609FE700F07AFD0546574B1B6813F452
:101CB400003FB7D000F072FD401B6428F5D9032023
:101CC4006FE1514B5B6813F4800FBAD14E4B1B6824
:101CD40013F0020F03D0E368012B40F05F814A4AFE
:101CE400136823F0F803216943EAC10313602368EE
:101CF40013F0080F49D06369002B33D0434B012202
:101D0400C3F8802E00F04AFD05463F4B5B6F13F08D
:101D1400020F3AD100F042FD401B0228F5D90320FE
:101D24003FE1394B5B6813F4800F90D1CEE7364A1C
:101D3400136823F0F803216943EAC1031360D6E76B
:101D4400324B00221A6000F029FD05462E4B1B6819
:101D540013F0020FCBD000F021FD401B0228F5D96F
:101D640003201EE1294B0022C3F8802E00F016FD4B
:101D74000546254B5B6F13F0020F06D000F00EFDF5
:101D8400401B0228F5D903200BE1236813F0040F4C
:101D940076D01D4B1B6C13F0805F33D1002301936D
:101DA400194B1A6C42F080521A641B6C03F0805376
:101DB4000193019B0125164B1B6813F4807F29D0E6
:101DC400A368012B3AD0052B3ED00F4B1A6F22F09B
:101DD40001021A671A6F22F004021A67A368002B23
:101DE4003CD000F0DBFC0646074B1B6F13F0020FE0
:101DF40045D100F0D3FC801B41F288339842F3D9DB
:101E04000320CEE00025D6E7003802400000474218
:101E1400007000406B4A136843F48073136000F051
:101E2400BDFC0646674B1B6813F4807FC8D100F0E5
:101E3400B5FC801B0228F5D90320B2E0624A136F77
:101E440043F001031367C9E75F4B1A6F42F00402C2
:101E54001A671A6F42F001021A67BFE700F09EFC8E
:101E64000646594B1B6F13F0020F08D000F096FC86
:101E7400801B41F288339842F3D9032091E0EDB9F5
:101E8400A369002B00F08C804F4A926802F00C0288
:101E9400082A54D0022B17D04C4B00221A6600F0AB
:101EA4007DFC0446484B1B6813F0007F45D000F0CE
:101EB40075FC001B0228F5D9032072E0424A136C1A
:101EC40023F080531364DBE7404B00221A6600F0D2
:101ED40065FC05463C4B1B6813F0007F06D000F000
:101EE4005DFC401B0228F5D903205AE0E369226A0D
:101EF4001343626A43EA8213A26A5208013A43EA2C
:101F04000243E26A43EA0263226B43EA02732E4A03
:101F140053602E4B01221A6600F040FC04462A4B03
:101F24001B6813F0007F06D100F038FC001B022868
:101F3400F5D9032035E0002033E0002031E0012B07
:101F440031D0214B5B6803F48001E26991422CD1CA
:101F540003F03F02216A8A4229D1616A47F6C072BE
:101F64001A40B2EB811F24D103F44031A26A520813
:101F7400013AB1EB024F1ED103F07062E16AB2EB99
:101F8400016F1AD103F0E043226BB3EB027F16D149
:101F9400002006E001207047012002E0012000E05B
:101FA400002002B070BD0120FBE70120F9E7012009
:101FB400F7E70120F5E70120F3E70120F1E701202D
:101FC400EFE700BF007000400038024000004742C5
:101FD40000230F2B00F2E38070B582B065E08568C2
:101FE4004FEA430E032404FA0EF425EA0405CC68F0
:101FF40004FA0EF42C438460446824EA02044A6818
:10200400C2F300129A40224342605CE0DC080834C8
:1020140050F8242003F00705AD004FF00F0E0EFA20
:1020240005FE22EA0E0E0A69AA4042EA0E0240F8B0
:1020340024205CE0062200E0002202FA0EF22A4389
:102044000234574D45F82420564A94686FEA0C022E
:1020540024EA0C054E6816F4801F01D04CEA0405EE
:10206400504CA560E46802EA04054E6816F4001FAB
:1020740001D04CEA04054B4CE560646802EA0405AF
:102084004E6816F4003F01D04CEA0405454C6560E7
:10209400246822404D6815F4803F01D04CEA0402C4
:1020A400404C226001330F2B77D801229A400C68F0
:1020B40004EA020C32EA0404F4D14C6804F0030488
:1020C400013C012C8BD94A6802F00302032A09D08F
:1020D400C4685D000322AA4024EA02048A68AA4074
:1020E4002243C2604A6802F00302022A8ED00468C6
:1020F4004FEA430E032202FA0EF224EA02044A686B
:1021040002F0030202FA0EF2224302604A6812F459
:10211400403FC7D000220192234A546C44F48044C7
:102124005464526C02F480420192019A9C08A51CEA
:102134001B4A52F8255003F0030E4FEA8E0E0F226D
:1021440002FA0EF225EA0205184A90423FF474AFEF
:1021540002F58062904216D002F58062904214D05B
:1021640002F58062904212D002F58062904210D053
:1021740002F5806290420ED002F5806290423FF4F4
:1021840059AF072259E7012257E7022255E70322F4
:1021940053E7042251E705224FE702B070BD7047B0
:1021A40000380140003C0140003802400000024079
:1021B4000AB181617047090481617047704700006A
:1021C40008B5054B5B69034200D108BD024B586159
:1021D400FFF7F4FFF9E700BF003C014030B40568A5
:1021E4002C6824F480242C60046863608368402B8A
:1021F40005D0036899600368DA6030BC70470368EF
:102204009A600368D960F8E710B40368D9B210394A
:102214000A4AA2FB01421209094CA25CC2655F2969
:1022240007D96FF3090304338365806D5DF8044BAC
:1022340070476FF309038365F7E700BFABAAAAAA47
:10224400E8280308836A826992B9012B0AD0022B19
:1022540002D00BB100207047C36A13F0807F28D1ED
:1022640000207047C36AB3F1C07F24D000207047B8
:10227400B2F5005F09D0022B25D9032B25D1C36AFF
:1022840013F0807F23D100207047032B03D8DFE8AD
:1022940003F01404140A00207047C36A13F0807F0B
:1022A4000DD100207047C36AB3F1C07F09D000206C
:1022B40070470120704701207047012070470120BA
:1022C40070470120704701207047002070470120AB
:1022D4007047000070B5044600F060FA002C5BD033
:1022E4000546022384F83530002384F8343022680C
:1022F400136823F00103136023681A6812F0010FB6
:102304000AD000F04BFA431B052BF5D92023636553
:10231400032084F8350070BD1A68204911406268B2
:10232400A0680243E06802432069024360690243F3
:10233400A0690243E0690243206A02430A43616AD6
:1023440004291ED01A602668756925F00705636A9A
:102354001D43042B07D1A36A1D43E36A1BB1204626
:10236400FFF770FF90B975612046FFF74DFFE26DEE
:102374003F239340836000206065012384F8353057
:10238400C9E7E16A206B01430A43DBE74023636545
:10239400012084F83500BEE70120BCE73F8010F03F
:1023A40038B50446856D90F8340001282BD00120FF
:1023B40084F8340094F83500C0B2012804D0002316
:1023C40084F83430022038BD022084F8350000201F
:1023D40060652046FFF702FFE26D3F239340AB6048
:1023E4002268136843F016031360236C23B1226838
:1023F400136843F0080313602268136843F0010371
:1024040013600020DFE70220DDE790F83530DBB20F
:10241400022B03D08023436501207047052380F8F5
:1024240035300268136823F00103136000207047FD
:10243400F0B583B0044600230193724B1D68724BC0
:10244400A3FB0535AD0A876D3E68C26D0823934032
:10245400334210D003681A6812F0040F0BD01A68C4
:1024640022F004021A60C26D08239340BB60436DDE
:1024740043F001034365E26D01239340334209D0E5
:102484002268526912F0800F04D0BB60636D43F080
:1024940002036365E26D04239340334209D022684A
:1024A400126812F0020F04D0BB60636D43F00403A2
:1024B4006365E26D10239340334224D0226812688E
:1024C40012F0080F1FD0BB6023681A6812F4802F23
:1024D4000DD01B6813F4002F04D1236C9BB120464C
:1024E400984710E0A36C73B1204698470BE01A6834
:1024F40012F4807F03D11A6822F008021A60236C58
:102504000BB120469847E26D20239340334255D0C7
:102514002268126812F0100F50D0BB6094F8353066
:10252400DBB2052B0ED023681A6812F4802F33D047
:102534001B6813F4002F2AD1636C002B3ED0204675
:1025440098473BE02268136823F01603136022685F
:10255400536923F080035361236CA3B12268136889
:1025640023F008031360E26D3F239340BB60012313
:1025740084F83530002384F83430236D002B3FD0A9
:10258400204698473CE0A36C002BE7D1EBE7E36BD4
:10259400A3B12046984711E01A6812F4807F09D14C
:1025A4001A6822F010021A60012384F835300023DF
:1025B40084F83430E36B0BB120469847636DFBB16C
:1025C400636D13F0010F17D0052384F835302268AA
:1025D400136823F001031360019B01330193AB42A1
:1025E40004D823681B6813F0010FF5D1012384F884
:1025F4003530002384F83430E36C0BB1204698471F
:1026040003B0F0BD48000020B5814E1B002807DB55
:1026140000F01F02400901239340024A42F820308F
:10262400704700BF00E100E0002808DB0901C9B2DF
:1026340000F1604000F5614080F80013704700F03D
:102644000F000901C9B2014B1954704714ED00E0A1
:1026540000B500F00700C0F1070CBCF1040F28BF5F
:102664004FF0040C031D062B0FD9C31E4FF0FF3E81
:102674000EFA0CF021EA000199400EFA03FE22EA58
:102684000E0241EA02005DF804FB0023EEE70000BD
:10269400074AD36823F4E0631B041B0C000200F414
:1026A400E060034343F0BF6343F40033D3607047F7
:1026B40000ED00E010B50446054BD868C0F30220D5
:1026C400FFF7C6FF01462046FFF7AEFF10BD00BF6F
:1026D40000ED00E008B5FFF799FF08BD0138B0F13F
:1026E400807F0BD24FF0E0235861054AF02182F835
:1026F40023100020986107221A6170470120704757
:1027040000ED00E010B504460E4B1A784FF47A73CE
:10271400B3FBF2F30C4A1068B0FBF3F0FFF7DEFFF3
:1027240068B90F2C01D901200AE0002221464FF09C
:10273400FF30FFF7BFFF054B1C60002000E00120C5
:1027440010BD00BF400000204800002044000020CD
:1027540008B50B4B1A6842F400721A601A6842F406
:1027640080621A601A6842F480721A600320FFF7CC
:102774008FFF0F20FFF7C6FFFEF782FB002008BD86
:10278400003C0240034A1168034B1B780B4413605E
:10279400704700BF6001002040000020014B186812
:1027A400704700BF6001002038B50446FFF7F6FF0C
:1027B4000546B4F1FF3F02D0044B1B781C44FFF7DD
:1027C400EDFF401BA042FAD338BD00BF40000020FB
:1027D400034AD2F8883043F47003C2F88830704753
:1027E40000ED00E0DFF834D0FFF7F2FF0C480D49AC
:1027F4000D4A002302E0D458C4500433C4188C4258
:10280400F9D30A4A0A4C002301E013600432A242BD
:10281400FBD300F019F8FEF733F8704700000220EC
:10282400000000204C000020102903084C00002068
:1028340064010020FEE702440346934200D170473E
:1028440003F8011BF9E7000070B50D4D0D4C641B36
:10285400A4100026A64209D10B4D0C4C00F018F828
:10286400641BA4100026A64205D170BD55F8043B94
:1028740098470136EEE755F8043B98470136F2E7EE
:102884000829030808290308082903080C29030850
:10289400F8B500BFF8BC08BC9E467047F8B500BF49
:0828A400F8BC08BC9E46704719
:1028AC0057617665666F726D3A20000053696E65EC
:1028BC0000000000547269616E676C6500000000D6
:1028CC00536177005069616E6F0000004775697441
:1028DC00617200004472756D000000000000000081
:1028EC0000000100010002000200030003000400CC
:1028FC00040005000500060006000700070008009C
:10290C000800090009000A000A000B000B000C006B
:10291C000C000D000D000E000E000F000F0010003B
:10292C00100011001100120012001300130014000B
:10293C0014001500150016001600170017001800DB
:10294C001800190019001A001A001B001B001C00AB
:10295C001C001D001D001E001E001F001F0020007B
:10296C00200021002100220022002300230024004B
:10297C00240025002500260026002700270028001B
:10298C002800290029002A002A002B002B002C00EB
:10299C002C002D002D002E002E002F002F003000BB
:1029AC00300031003100320032003300330034008B
:1029BC00340035003500360036003700370038005B
:1029CC003800390039003A003A003B003B003C002B
:1029DC003C003D003D003E003E003F003F004000FB
:1029EC0040004100410042004200430043004400CB
:1029FC00440045004500460046004700470048009B
:102A0C004800490049004A004A004B004B004C006A
:102A1C004C004D004D004E004E004F004F0050003A
:102A2C00500051005100520052005300530054000A
:102A3C0054005500550056005600570057005800DA
:102A4C005800590059005A005A005B005B005C00AA
:102A5C005C005D005D005E005E005F005F0060007A
:102A6C00600061006100620062006300630064004A
:102A7C00640065006500660066006700670068001A
:102A8C006800690069006A006A006B006B006C00EA
:102A9C006C006D006D006E006E006F006F007000BA
:102AAC00700071007100720072007300730074008A
:102ABC00740075007500760076007700770078005A
:102ACC007800790079007A007A007B007B007C002A
:102ADC007C007D007D007E007E007F007F008000FA
:102AEC0080008100810082008200830083008400CA
:102AFC00840085008500860086008700870088009A
:102B0C008800890089008A008A008B008B008C0069
:102B1C008C008D008D008E008E008F008F00900039
:102B2C009000910091009200920093009300940009
:102B3C0094009500950096009600970097009800D9
:102B4C009800990099009A009A009B009B009C00A9
:102B5C009C009D009D009E009E009F009F00A00079
:102B6C00A000A100A100A200A200A300A300A40049
:102B7C00A400A500A500A600A600A700A700A80019
:102B8C00A800A900A900AA00AA00AB00AB00AC00E9
:102B9C00AC00AD00AD00AE00AE00AF00AF00B000B9
:102BAC00B000B100B100B200B200B300B300B40089
:102BBC00B400B500B500B600B600B700B700B80059
:102BCC00B800B900B900BA00BA00BB00BB00BC0029
:102BDC00BC00BD00BD00BE00BE00BF00BF00C000F9
:102BEC00C000C100C100C200C200C300C300C400C9
:102BFC00C400C500C500C600C600C700C700C80099
:102C0C00C800C900C900CA00CA00CB00CB00CC0068
:102C1C00CC00CD00CD00CE00CE00CF00CF00D00038
:102C2C00D000D100D100D200D200D300D300D40008
:102C3C00D400D500D500D600D600D700D700D800D8
:102C4C00D800D900D900DA00DA00DB00DB00DC00A8
:102C5C00DC00DD00DD00DE00DE00DF00DF00E00078
:102C6C00E000E100E100E200E200E300E300E40048
:102C7C00E400E500E500E600E600E700E700E80018
:102C8C00E800E900E900EA00EA00EB00EB00EC00E8
:102C9C00EC00ED00ED00EE00EE00EF00EF00F000B8
:102CAC00F000F100F100F200F200F300F300F40088
:102CBC00F400F500F500F600F600F700F700F80058
:102CCC00F800F900F900FA00FA00FB00FB00FC0028
:102CDC00FC00FD00FD00FE00FE00FF00FF000001F7
:102CEC0000010101010102010201030103010401C0
:102CFC000401050105010601060107010701080190
:102D0C000801090109010A010A010B010B010C015F
:102D1C000C010D010D010E010E010F010F0110012F
:102D2C0010011101110112011201130113011401FF
:102D3C0014011501150116011601170117011801CF
:102D4C001801190119011A011A011B011B011C019F
:102D5C001C011D011D011E011E011F011F0120016F
:102D6C00200121012101220122012301230124013F
:102D7C00240125012501260126012701270128010F
:102D8C002801290129012A012A012B012B012C01DF
:102D9C002C012D012D012E012E012F012F013001AF
:102DAC00300131013101320132013301330134017F
:102DBC00340135013501360136013701370138014F
:102DCC003801390139013A013A013B013B013C011F
:102DDC003C013D013D013E013E013F013F014001EF
:102DEC0040014101410142014201430143014401BF
:102DFC00440145014501460146014701470148018F
:102E0C004801490149014A014A014B014B014C015E
:102E1C004C014D014D014E014E014F014F0150012E
:102E2C0050015101510152015201530153015401FE
:102E3C0054015501550156015601570157015801CE
:102E4C005801590159015A015A015B015B015C019E
:102E5C005C015D015D015E015E015F015F0160016E
:102E6C00600161016101620162016301630164013E
:102E7C00640165016501660166016701670168010E
:102E8C006801690169016A016A016B016B016C01DE
:102E9C006C016D016D016E016E016F016F017001AE
:102EAC00700171017101720172017301730174017E
:102EBC00740175017501760176017701770178014E
:102ECC007801790179017A017A017B017B017C011E
:102EDC007C017D017D017E017E017F017F018001EE
:102EEC0080018101810182018201830183018401BE
:102EFC00840185018501860186018701870188018E
:102F0C008801890189018A018A018B018B018C015D
:102F1C008C018D018D018E018E018F018F0190012D
:102F2C0090019101910192019201930193019401FD
:102F3C0094019501950196019601970197019801CD
:102F4C009801990199019A019A019B019B019C019D
:102F5C009C019D019D019E019E019F019F01A0016D
:102F6C00A001A101A101A201A201A301A301A4013D
:102F7C00A401A501A501A601A601A701A701A8010D
:102F8C00A801A901A901AA01AA01AB01AB01AC01DD
:102F9C00AC01AD01AD01AE01AE01AF01AF01B001AD
:102FAC00B001B101B101B201B201B301B301B4017D
:102FBC00B401B501B501B601B601B701B701B8014D
:102FCC00B801B901B901BA01BA01BB01BB01BC011D
:102FDC00BC01BD01BD01BE01BE01BF01BF01C001ED
:102FEC00C001C101C101C201C201C301C301C401BD
:102FFC00C401C501C501C601C601C701C701C8018D
:10300C00C801C901C901CA01CA01CB01CB01CC015C
:10301C00CC01CD01CD01CE01CE01CF01CF01D0012C
:10302C00D001D101D101D201D201D301D301D401FC
:10303C00D401D501D501D601D601D701D701D801CC
:10304C00D801D901D901DA01DA01DB01DB01DC019C
:10305C00DC01DD01DD01DE01DE01DF01DF01E0016C
:10306C00E001E101E101E201E201E301E301E4013C
:10307C00E401E501E501E601E601E701E701E8010C
:10308C00E801E901E901EA01EA01EB01EB01EC01DC
:10309C00EC01ED01ED01EE01EE01EF01EF01F001AC
:1030AC00F001F101F101F201F201F301F301F4017C
:1030BC00F401F501F501F601F601F701F701F8014C
:1030CC00F801F901F901FA01FA01FB01FB01FC011C
:1030DC00FC01FD01FD01FE01FE01FF01FF010002EB
:1030EC0000020102010202020202030203020402B4
:1030FC000402050205020602060207020702080284
:10310C000802090209020A020A020B020B020C0253
:10311C000C020D020D020E020E020F020F02100223
:10312C0010021102110212021202130213021402F3
:10313C0014021502150216021602170217021802C3
:10314C001802190219021A021A021B021B021C0293
:10315C001C021D021D021E021E021F021F02200263
:10316C002002210221022202220223022302240233
:10317C002402250225022602260227022702280203
:10318C002802290229022A022A022B022B022C02D3
:10319C002C022D022D022E022E022F022F023002A3
:1031AC003002310231023202320233023302340273
:1031BC003402350235023602360237023702380243
:1031CC003802390239023A023A023B023B023C0213
:1031DC003C023D023D023E023E023F023F024002E3
:1031EC0040024102410242024202430243024402B3
:1031FC004402450245024602460247024702480283
:10320C004802490249024A024A024B024B024C0252
:10321C004C024D024D024E024E024F024F02500222
:10322C0050025102510252025202530253025402F2
:10323C0054025502550256025602570257025802C2
:10324C005802590259025A025A025B025B025C0292
:10325C005C025D025D025E025E025F025F02600262
:10326C006002610261026202620263026302640232
:10327C006402650265026602660267026702680202
:10328C006802690269026A026A026B026B026C02D2
:10329C006C026D026D026E026E026F026F027002A2
:1032AC007002710271027202720273027302740272
:1032BC007402750275027602760277027702780242
:1032CC007802790279027A027A027B027B027C0212
:1032DC007C027D027D027E027E027F027F028002E2
:1032EC0080028102810282028202830283028402B2
:1032FC008402850285028602860287028702880282
:10330C008802890289028A028A028B028B028C0251
:10331C008C028D028D028E028E028F028F02900221
:10332C0090029102910292029202930293029402F1
:10333C0094029502950296029602970297029802C1
:10334C009802990299029A029A029B029B029C0291
:10335C009C029D029D029E029E029F029F02A00261
:10336C00A002A102A102A202A202A302A302A40231
:10337C00A402A502A502A602A602A702A702A80201
:10338C00A802A902A902AA02AA02AB02AB02AC02D1
:10339C00AC02AD02AD02AE02AE02AF02AF02B002A1
:1033AC00B002B102B102B202B202B302B302B40271
:1033BC00B402B502B502B602B602B702B702B80241
:1033CC00B802B902B902BA02BA02BB02BB02BC0211
:1033DC00BC02BD02BD02BE02BE02BF02BF02C002E1
:1033EC00C002C102C102C202C202C302C302C402B1
:1033FC00C402C502C502C602C602C702C702C80281
:10340C00C802C902C902CA02CA02CB02CB02CC0250
:10341C00CC02CD02CD02CE02CE02CF02CF02D00220
:10342C00D002D102D102D202D202D302D302D402F0
:10343C00D402D502D502D602D602D702D702D802C0
:10344C00D802D902D902DA02DA02DB02DB02DC0290
:10345C00DC02DD02DD02DE02DE02DF02DF02E00260
:10346C00E002E102E102E202E202E302E302E40230
:10347C00E402E502E502E602E602E702E702E80200
:10348C00E802E902E902EA02EA02EB02EB02EC02D0
:10349C00EC02ED02ED02EE02EE02EF02EF02F002A0
:1034AC00F002F102F102F202F202F302F302F40270
:1034BC00F402F502F502F602F602F702F702F80240
:1034CC00F802F902F902FA02FA02FB02FB02FC0210
:1034DC00FC02FD02FD02FE02FE02FF02FF020003DF
:1034EC0000030103010302030203030303030403A8
:1034FC000403050305030603060307030703080378
:10350C000803090309030A030A030B030B030C0347
:10351C000C030D030D030E030E030F030F03100317
:10352C0010031103110312031203130313031403E7
:10353C0014031503150316031603170317031803B7
:10354C001803190319031A031A031B031B031C0387
:10355C001C031D031D031E031E031F031F03200357
:10356C002003210321032203220323032303240327
:10357C0024032503250326032603270327032803F7
:10358C002803290329032A032A032B032B032C03C7
:10359C002C032D032D032E032E032F032F03300397
:1035AC003003310331033203320333033303340367
:1035BC003403350335033603360337033703380337
:1035CC003803390339033A033A033B033B033C0307
:1035DC003C033D033D033E033E033F033F034003D7
:1035EC0040034103410342034203430343034403A7
:1035FC004403450345034603460347034703480377
:10360C004803490349034A034A034B034B034C0346
:10361C004C034D034D034E034E034F034F03500316
:10362C0050035103510352035203530353035403E6
:10363C0054035503550356035603570357035803B6
:10364C005803590359035A035A035B035B035C0386
:10365C005C035D035D035E035E035F035F03600356
:10366C006003610361036203620363036303640326
:10367C0064036503650366036603670367036803F6
:10368C006803690369036A036A036B036B036C03C6
:10369C006C036D036D036E036E036F036F03700396
:1036AC007003710371037203720373037303740366
:1036BC007403750375037603760377037703780336
:1036CC007803790379037A037A037B037B037C0306
:1036DC007C037D037D037E037E037F037F038003D6
:1036EC0080038103810382038203830383038403A6
:1036FC008403850385038603860387038703880376
:10370C008803890389038A038A038B038B038C0345
:10371C008C038D038D038E038E038F038F03900315
:10372C0090039103910392039203930393039403E5
:10373C0094039503950396039603970397039803B5
:10374C009803990399039A039A039B039B039C0385
:10375C009C039D039D039E039E039F039F03A00355
:10376C00A003A103A103A203A203A303A303A40325
:10377C00A403A503A503A603A603A703A703A803F5
:10378C00A803A903A903AA03AA03AB03AB03AC03C5
:10379C00AC03AD03AD03AE03AE03AF03AF03B00395
:1037AC00B003B103B103B203B203B303B303B40365
:1037BC00B403B503B503B603B603B703B703B80335
:1037CC00B803B903B903BA03BA03BB03BB03BC0305
:1037DC00BC03BD03BD03BE03BE03BF03BF03C003D5
:1037EC00C003C103C103C203C203C303C303C403A5
:1037FC00C403C503C503C603C603C703C703C80375
:10380C00C803C903C903CA03CA03CB03CB03CC0344
:10381C00CC03CD03CD03CE03CE03CF03CF03D00314
:10382C00D003D103D103D203D203D303D303D403E4
:10383C00D403D503D503D603D603D703D703D803B4
:10384C00D803D903D903DA03DA03DB03DB03DC0384
:10385C00DC03DD03DD03DE03DE03DF03DF03E00354
:10386C00E003E103E103E203E203E303E303E40324
:10387C00E403E503E503E603E603E703E703E803F4
:10388C00E803E903E903EA03EA03EB03EB03EC03C4
:10389C00EC03ED03ED03EE03EE03EF03EF03F00394
:1038AC00F003F103F103F203F203F303F303F40364
:1038BC00F403F503F503F603F603F703F703F80334
:1038CC00F803F903F903FA03FA03FB03FB03FC0304
:1038DC00FC03FD03FD03FE03FE03FF03FF030004D3
:1038EC00000401040104020402040304030404049C
:1038FC00040405040504060406040704070408046C
:10390C000804090409040A040A040B040B040C043B
:10391C000C040D040D040E040E040F040F0410040B
:10392C0010041104110412041204130413041404DB
:10393C0014041504150416041604170417041804AB
:10394C001804190419041A041A041B041B041C047B
:10395C001C041D041D041E041E041F041F0420044B
:10396C00200421042104220422042304230424041B
:10397C0024042504250426042604270427042804EB
:10398C002804290429042A042A042B042B042C04BB
:10399C002C042D042D042E042E042F042F0430048B
:1039AC00300431043104320432043304330434045B
:1039BC00340435043504360436043704370438042B
:1039CC003804390439043A043A043B043B043C04FB
:1039DC003C043D043D043E043E043F043F044004CB
:1039EC00400441044104420442044304430444049B
:1039FC00440445044504460446044704470448046B
:103A0C004804490449044A044A044B044B044C043A
:103A1C004C044D044D044E044E044F044F0450040A
:103A2C0050045104510452045204530453045404DA
:103A3C0054045504550456045604570457045804AA
:103A4C005804590459045A045A045B045B045C047A
:103A5C005C045D045D045E045E045F045F0460044A
:103A6C00600461046104620462046304630464041A
:103A7C0064046504650466046604670467046804EA
:103A8C006804690469046A046A046B046B046C04BA
:103A9C006C046D046D046E046E046F046F0470048A
:103AAC00700471047104720472047304730474045A
:103ABC00740475047504760476047704770478042A
:103ACC007804790479047A047A047B047B047C04FA
:103ADC007C047D047D047E047E047F047F048004CA
:103AEC00800481048104820482048304830484049A
:103AFC00840485048504860486048704870488046A
:103B0C008804890489048A048A048B048B048C0439
:103B1C008C048D048D048E048E048F048F04900409
:103B2C0090049104910492049204930493049404D9
:103B3C0094049504950496049604970497049804A9
:103B4C009804990499049A049A049B049B049C0479
:103B5C009C049D049D049E049E049F049F04A00449
:103B6C00A004A104A104A204A204A304A304A40419
:103B7C00A404A504A504A604A604A704A704A804E9
:103B8C00A804A904A904AA04AA04AB04AB04AC04B9
:103B9C00AC04AD04AD04AE04AE04AF04AF04B00489
:103BAC00B004B104B104B204B204B304B304B40459
:103BBC00B404B504B504B604B604B704B704B80429
:103BCC00B804B904B904BA04BA04BB04BB04BC04F9
:103BDC00BC04BD04BD04BE04BE04BF04BF04C004C9
:103BEC00C004C104C104C204C204C304C304C40499
:103BFC00C404C504C504C604C604C704C704C80469
:103C0C00C804C904C904CA04CA04CB04CB04CC0438
:103C1C00CC04CD04CD04CE04CE04CF04CF04D00408
:103C2C00D004D104D104D204D204D304D304D404D8
:103C3C00D404D504D504D604D604D704D704D804A8
:103C4C00D804D904D904DA04DA04DB04DB04DC0478
:103C5C00DC04DD04DD04DE04DE04DF04DF04E00448
:103C6C00E004E104E104E204E204E304E304E40418
:103C7C00E404E504E504E604E604E704E704E804E8
:103C8C00E804E904E904EA04EA04EB04EB04EC04B8
:103C9C00EC04ED04ED04EE04EE04EF04EF04F00488
:103CAC00F004F104F104F204F204F304F304F40458
:103CBC00F404F504F504F604F604F704F704F80428
:103CCC00F804F904F904FA04FA04FB04FB04FC04F8
:103CDC00FC04FD04FD04FE04FE04FF04FF040005C7
:103CEC000005010501050205020503050305040590
:103CFC000405050505050605060507050705080560
:103D0C000805090509050A050A050B050B050C052F
:103D1C000C050D050D050E050E050F050F051005FF
:103D2C0010051105110512051205130513051405CF
:103D3C00140515051505160516051705170518059F
:103D4C001805190519051A051A051B051B051C056F
:103D5C001C051D051D051E051E051F051F0520053F
:103D6C00200521052105220522052305230524050F
:103D7C0024052505250526052605270527052805DF
:103D8C002805290529052A052A052B052B052C05AF
:103D9C002C052D052D052E052E052F052F0530057F
:103DAC00300531053105320532053305330534054F
:103DBC00340535053505360536053705370538051F
:103DCC003805390539053A053A053B053B053C05EF
:103DDC003C053D053D053E053E053F053F054005BF
:103DEC00400541054105420542054305430544058F
:103DFC00440545054505460546054705470548055F
:103E0C004805490549054A054A054B054B054C052E
:103E1C004C054D054D054E054E054F054F055005FE
:103E2C0050055105510552055205530553055405CE
:103E3C00540555055505560556055705570558059E
:103E4C005805590559055A055A055B055B055C056E
:103E5C005C055D055D055E055E055F055F0560053E
:103E6C00600561056105620562056305630564050E
:103E7C0064056505650566056605670567056805DE
:103E8C006805690569056A056A056B056B056C05AE
:103E9C006C056D056D056E056E056F056F0570057E
:103EAC00700571057105720572057305730574054E
:103EBC00740575057505760576057705770578051E
:103ECC007805790579057A057A057B057B057C05EE
:103EDC007C057D057D057E057E057F057F058005BE
:103EEC00800581058105820582058305830584058E
:103EFC00840585058505860586058705870588055E
:103F0C008805890589058A058A058B058B058C052D
:103F1C008C058D058D058E058E058F058F059005FD
:103F2C0090059105910592059205930593059405CD
:103F3C00940595059505960596059705970598059D
:103F4C009805990599059A059A059B059B059C056D
:103F5C009C059D059D059E059E059F059F05A0053D
:103F6C00A005A105A105A205A205A305A305A4050D
:103F7C00A405A505A505A605A605A705A705A805DD
:103F8C00A805A905A905AA05AA05AB05AB05AC05AD
:103F9C00AC05AD05AD05AE05AE05AF05AF05B0057D
:103FAC00B005B105B105B205B205B305B305B4054D
:103FBC00B405B505B505B605B605B705B705B8051D
:103FCC00B805B905B905BA05BA05BB05BB05BC05ED
:103FDC00BC05BD05BD05BE05BE05BF05BF05C005BD
:103FEC00C005C105C105C205C205C305C305C4058D
:103FFC00C405C505C505C605C605C705C705C8055D
:10400C00C805C905C905CA05CA05CB05CB05CC052C
:10401C00CC05CD05CD05CE05CE05CF05CF05D005FC
:10402C00D005D105D105D205D205D305D305D405CC
:10403C00D405D505D505D605D605D705D705D8059C
:10404C00D805D905D905DA05DA05DB05DB05DC056C
:10405C00DC05DD05DD05DE05DE05DF05DF05E0053C
:10406C00E005E105E105E205E205E305E305E4050C
:10407C00E405E505E505E605E605E705E705E805DC
:10408C00E805E905E905EA05EA05EB05EB05EC05AC
:10409C00EC05ED05ED05EE05EE05EF05EF05F0057C
:1040AC00F005F105F105F205F205F305F305F4054C
:1040BC00F405F505F505F605F605F705F705F8051C
:1040CC00F805F905F905FA05FA05FB05FB05FC05EC
:1040DC00FC05FD05FD05FE05FE05FF05FF050006BB
:1040EC000006010601060206020603060306040684
:1040FC000406050605060606060607060706080654
:10410C000806090609060A060A060B060B060C0623
:10411C000C060D060D060E060E060F060F061006F3
:10412C0010061106110612061206130613061406C3
:10413C001406150615061606160617061706180693
:10414C001806190619061A061A061B061B061C0663
:10415C001C061D061D061E061E061F061F06200633
:10416C002006210621062206220623062306240603
:10417C0024062506250626062606270627062806D3
:10418C002806290629062A062A062B062B062C06A3
:10419C002C062D062D062E062E062F062F06300673
:1041AC003006310631063206320633063306340643
:1041BC003406350635063606360637063706380613
:1041CC003806390639063A063A063B063B063C06E3
:1041DC003C063D063D063E063E063F063F064006B3
:1041EC004006410641064206420643064306440683
:1041FC004406450645064606460647064706480653
:10420C004806490649064A064A064B064B064C0622
:10421C004C064D064D064E064E064F064F065006F2
:10422C0050065106510652065206530653065406C2
:10423C005406550655065606560657065706580692
:10424C005806590659065A065A065B065B065C0662
:10425C005C065D065D065E065E065F065F06600632
:10426C006006610661066206620663066306640602
:10427C0064066506650666066606670667066806D2
:10428C006806690669066A066A066B066B066C06A2
:10429C006C066D066D066E066E066F066F06700672
:1042AC007006710671067206720673067306740642
:1042BC007406750675067606760677067706780612
:1042CC007806790679067A067A067B067B067C06E2
:1042DC007C067D067D067E067E067F067F068006B2
:1042EC008006810681068206820683068306840682
:1042FC008406850685068606860687068706880652
:10430C008806890689068A068A068B068B068C0621
:10431C008C068D068D068E068E068F068F069006F1
:10432C0090069106910692069206930693069406C1
:10433C009406950695069606960697069706980691
:10434C009806990699069A069A069B069B069C0661
:10435C009C069D069D069E069E069F069F06A00631
:10436C00A006A106A106A206A206A306A306A40601
:10437C00A406A506A506A606A606A706A706A806D1
:10438C00A806A906A906AA06AA06AB06AB06AC06A1
:10439C00AC06AD06AD06AE06AE06AF06AF06B00671
:1043AC00B006B106B106B206B206B306B306B40641
:1043BC00B406B506B506B606B606B706B706B80611
:1043CC00B806B906B906BA06BA06BB06BB06BC06E1
:1043DC00BC06BD06BD06BE06BE06BF06BF06C006B1
:1043EC00C006C106C106C206C206C306C306C40681
:1043FC00C406C506C506C606C606C706C706C80651
:10440C00C806C906C906CA06CA06CB06CB06CC0620
:10441C00CC06CD06CD06CE06CE06CF06CF06D006F0
:10442C00D006D106D106D206D206D306D306D406C0
:10443C00D406D506D506D606D606D706D706D80690
:10444C00D806D906D906DA06DA06DB06DB06DC0660
:10445C00DC06DD06DD06DE06DE06DF06DF06E00630
:10446C00E006E106E106E206E206E306E306E40600
:10447C00E406E506E506E606E606E706E706E806D0
:10448C00E806E906E906EA06EA06EB06EB06EC06A0
:10449C00EC06ED06ED06EE06EE06EF06EF06F00670
:1044AC00F006F106F106F206F206F306F306F40640
:1044BC00F406F506F506F606F606F706F706F80610
:1044CC00F806F906F906FA06FA06FB06FB06FC06E0
:1044DC00FC06FD06FD06FE06FE06FF06FF060007AF
:1044EC000007010701070207020703070307040778
:1044FC000407050705070607060707070707080748
:10450C000807090709070A070A070B070B070C0717
:10451C000C070D070D070E070E070F070F071007E7
:10452C0010071107110712071207130713071407B7
:10453C001407150715071607160717071707180787
:10454C001807190719071A071A071B071B071C0757
:10455C001C071D071D071E071E071F071F07200727
:10456C0020072107210722072207230723072407F7
:10457C0024072507250726072607270727072807C7
:10458C002807290729072A072A072B072B072C0797
:10459C002C072D072D072E072E072F072F07300767
:1045AC003007310731073207320733073307340737
:1045BC003407350735073607360737073707380707
:1045CC003807390739073A073A073B073B073C07D7
:1045DC003C073D073D073E073E073F073F074007A7
:1045EC004007410741074207420743074307440777
:1045FC004407450745074607460747074707480747
:10460C004807490749074A074A074B074B074C0716
:10461C004C074D074D074E074E074F074F075007E6
:10462C0050075107510752075207530753075407B6
:10463C005407550755075607560757075707580786
:10464C005807590759075A075A075B075B075C0756
:10465C005C075D075D075E075E075F075F07600726
:10466C0060076107610762076207630763076407F6
:10467C0064076507650766076607670767076807C6
:10468C006807690769076A076A076B076B076C0796
:10469C006C076D076D076E076E076F076F07700766
:1046AC007007710771077207720773077307740736
:1046BC007407750775077607760777077707780706
:1046CC007807790779077A077A077B077B077C07D6
:1046DC007C077D077D077E077E077F077F078007A6
:1046EC008007810781078207820783078307840776
:1046FC008407850785078607860787078707880746
:10470C008807890789078A078A078B078B078C0715
:10471C008C078D078D078E078E078F078F079007E5
:10472C0090079107910792079207930793079407B5
:10473C009407950795079607960797079707980785
:10474C009807990799079A079A079B079B079C0755
:10475C009C079D079D079E079E079F079F07A00725
:10476C00A007A107A107A207A207A307A307A407F5
:10477C00A407A507A507A607A607A707A707A807C5
:10478C00A807A907A907AA07AA07AB07AB07AC0795
:10479C00AC07AD07AD07AE07AE07AF07AF07B00765
:1047AC00B007B107B107B207B207B307B307B40735
:1047BC00B407B507B507B607B607B707B707B80705
:1047CC00B807B907B907BA07BA07BB07BB07BC07D5
:1047DC00BC07BD07BD07BE07BE07BF07BF07C007A5
:1047EC00C007C107C107C207C207C307C307C40775
:1047FC00C407C507C507C607C607C707C707C80745
:10480C00C807C907C907CA07CA07CB07CB07CC0714
:10481C00CC07CD07CD07CE07CE07CF07CF07D007E4
:10482C00D007D107D107D207D207D307D307D407B4
:10483C00D407D507D507D607D607D707D707D80784
:10484C00D807D907D907DA07DA07DB07DB07DC0754
:10485C00DC07DD07DD07DE07DE07DF07DF07E00724
:10486C00E007E107E107E207E207E307E307E407F4
:10487C00E407E507E507E607E607E707E707E807C4
:10488C00E807E907E907EA07EA07EB07EB07EC0794
:10489C00EC07ED07ED07EE07EE07EF07EF07F00764
:1048AC00F007F107F107F207F207F307F307F40734
:1048BC00F407F507F507F607F607F707F707F80704
:1048CC00F807F907F907FA07FA07FB07FB07FC07D4
:1048DC00FC07FD07FD07FE07FE07FF07FF07FF07A5
:1048EC000008000801080108020802080308030870
:1048FC000408040805080508060806080708070840
:10490C0008080808090809080A080A080B080B080F
:10491C000C080C080D080D080E080E080F080F08DF
:10492C0010081008110811081208120813081308AF
:10493C00140814081508150816081608170817087F
:10494C0018081808190819081A081A081B081B084F
:10495C001C081C081D081D081E081E081F081F081F
:10496C0020082008210821082208220823082308EF
:10497C0024082408250825082608260827082708BF
:10498C0028082808290829082A082A082B082B088F
:10499C002C082C082D082D082E082E082F082F085F
:1049AC00300830083108310832083208330833082F
:1049BC0034083408350835083608360837083708FF
:1049CC0038083808390839083A083A083B083B08CF
:1049DC003C083C083D083D083E083E083F083F089F
:1049EC00400840084108410842084208430843086F
:1049FC00440844084508450846084608470847083F
:104A0C0048084808490849084A084A084B084B080E
:104A1C004C084C084D084D084E084E084F084F08DE
:104A2C0050085008510851085208520853085308AE
:104A3C00540854085508550856085608570857087E
:104A4C0058085808590859085A085A085B085B084E
:104A5C005C085C085D085D085E085E085F085F081E
:104A6C0060086008610861086208620863086308EE
:104A7C0064086408650865086608660867086708BE
:104A8C0068086808690869086A086A086B086B088E
:104A9C006C086C086D086D086E086E086F086F085E
:104AAC00700870087108710872087208730873082E
:104ABC0074087408750875087608760877087708FE
:104ACC0078087808790879087A087A087B087B08CE
:104ADC007C087C087D087D087E087E087F087F089E
:104AEC00800880088108810882088208830883086E
:104AFC00840884088508850886088608870887083E
:104B0C0088088808890889088A088A088B088B080D
:104B1C008C088C088D088D088E088E088F088F08DD
:104B2C0090089008910891089208920893089308AD
:104B3C00940894089508950896089608970897087D
:104B4C0098089808990899089A089A089B089B084D
:104B5C009C089C089D089D089E089E089F089F081D
:104B6C00A008A008A108A108A208A208A308A308ED
:104B7C00A408A408A508A508A608A608A708A708BD
:104B8C00A808A808A908A908AA08AA08AB08AB088D
:104B9C00AC08AC08AD08AD08AE08AE08AF08AF085D
:104BAC00B008B008B108B108B208B208B308B3082D
:104BBC00B408B408B508B508B608B608B708B708FD
:104BCC00B808B808B908B908BA08BA08BB08BB08CD
:104BDC00BC08BC08BD08BD08BE08BE08BF08BF089D
:104BEC00C008C008C108C108C208C208C308C3086D
:104BFC00C408C408C508C508C608C608C708C7083D
:104C0C00C808C808C908C908CA08CA08CB08CB080C
:104C1C00CC08CC08CD08CD08CE08CE08CF08CF08DC
:104C2C00D008D008D108D108D208D208D308D308AC
:104C3C00D408D408D508D508D608D608D708D7087C
:104C4C00D808D808D908D908DA08DA08DB08DB084C
:104C5C00DC08DC08DD08DD08DE08DE08DF08DF081C
:104C6C00E008E008E108E108E208E208E308E308EC
:104C7C00E408E408E508E508E608E608E708E708BC
:104C8C00E808E808E908E908EA08EA08EB08EB088C
:104C9C00EC08EC08ED08ED08EE08EE08EF08EF085C
:104CAC00F008F008F108F108F208F208F308F3082C
:104CBC00F408F408F508F508F608F608F708F708FC
:104CCC00F808F808F908F908FA08FA08FB08FB08CC
:104CDC00FC08FC08FD08FD08FE08FE08FF08FF089C
:104CEC000009000901090109020902090309030964
:104CFC000409040905090509060906090709070934
:104D0C0008090809090909090A090A090B090B0903
:104D1C000C090C090D090D090E090E090F090F09D3
:104D2C0010091009110911091209120913091309A3
:104D3C001409140915091509160916091709170973
:104D4C0018091809190919091A091A091B091B0943
:104D5C001C091C091D091D091E091E091F091F0913
:104D6C0020092009210921092209220923092309E3
:104D7C0024092409250925092609260927092709B3
:104D8C0028092809290929092A092A092B092B0983
:104D9C002C092C092D092D092E092E092F092F0953
:104DAC003009300931093109320932093309330923
:104DBC0034093409350935093609360937093709F3
:104DCC0038093809390939093A093A093B093B09C3
:104DDC003C093C093D093D093E093E093F093F0993
:104DEC004009400941094109420942094309430963
:104DFC004409440945094509460946094709470933
:104E0C0048094809490949094A094A094B094B0902
:104E1C004C094C094D094D094E094E094F094F09D2
:104E2C0050095009510951095209520953095309A2
:104E3C005409540955095509560956095709570972
:104E4C0058095809590959095A095A095B095B0942
:104E5C005C095C095D095D095E095E095F095F0912
:104E6C0060096009610961096209620963096309E2
:104E7C0064096409650965096609660967096709B2
:104E8C0068096809690969096A096A096B096B0982
:104E9C006C096C096D096D096E096E096F096F0952
:104EAC007009700971097109720972097309730922
:104EBC0074097409750975097609760977097709F2
:104ECC0078097809790979097A097A097B097B09C2
:104EDC007C097C097D097D097E097E097F097F0992
:104EEC008009800981098109820982098309830962
:104EFC008409840985098509860986098709870932
:104F0C0088098809890989098A098A098B098B0901
:104F1C008C098C098D098D098E098E098F098F09D1
:104F2C0090099009910991099209920993099309A1
:104F3C009409940995099509960996099709970971
:104F4C0098099809990999099A099A099B099B0941
:104F5C009C099C099D099D099E099E099F099F0911
:104F6C00A009A009A109A109A209A209A309A309E1
:104F7C00A409A409A509A509A609A609A709A709B1
:104F8C00A809A809A909A909AA09AA09AB09AB0981
:104F9C00AC09AC09AD09AD09AE09AE09AF09AF0951
:104FAC00B009B009B109B109B209B209B309B30921
:104FBC00B409B409B509B509B609B609B709B709F1
:104FCC00B809B809B909B909BA09BA09BB09BB09C1
:104FDC00BC09BC09BD09BD09BE09BE09BF09BF0991
:104FEC00C009C009C109C109C209C209C309C30961
:104FFC00C409C409C509C509C609C609C709C70931
:10500C00C809C809C909C909CA09CA09CB09CB0900
:10501C00CC09CC09CD09CD09CE09CE09CF09CF09D0
:10502C00D009D009D109D109D209D209D309D309A0
:10503C00D409D409D509D509D609D609D709D70970
:10504C00D809D809D909D909DA09DA09DB09DB0940
:10505C00DC09DC09DD09DD09DE09DE09DF09DF0910
:10506C00E009E009E109E109E209E209E309E309E0
:10507C00E409E409E509E509E609E609E709E709B0
:10508C00E809E809E909E909EA09EA09EB09EB0980
:10509C00EC09EC09ED09ED09EE09EE09EF09EF0950
:1050AC00F009F009F109F109F209F209F309F30920
:1050BC00F409F409F509F509F609F609F709F709F0
:1050CC00F809F809F909F909FA09FA09FB09FB09C0
:1050DC00FC09FC09FD09FD09FE09FE09FF09FF0990
:1050EC00000A000A010A010A020A020A030A030A58
:1050FC00040A040A050A050A060A060A070A070A28
:10510C00080A080A090A090A0A0A0A0A0B0A0B0AF7
:10511C000C0A0C0A0D0A0D0A0E0A0E0A0F0A0F0AC7
:10512C00100A100A110A110A120A120A130A130A97
:10513C00140A140A150A150A160A160A170A170A67
:10514C00180A180A190A190A1A0A1A0A1B0A1B0A37
:10515C001C0A1C0A1D0A1D0A1E0A1E0A1F0A1F0A07
:10516C00200A200A210A210A220A220A230A230AD7
:10517C00240A240A250A250A260A260A270A270AA7
:10518C00280A280A290A290A2A0A2A0A2B0A2B0A77
:10519C002C0A2C0A2D0A2D0A2E0A2E0A2F0A2F0A47
:1051AC00300A300A310A310A320A320A330A330A17
:1051BC00340A340A350A350A360A360A370A370AE7
:1051CC00380A380A390A390A3A0A3A0A3B0A3B0AB7
:1051DC003C0A3C0A3D0A3D0A3E0A3E0A3F0A3F0A87
:1051EC00400A400A410A410A420A420A430A430A57
:1051FC00440A440A450A450A460A460A470A470A27
:10520C00480A480A490A490A4A0A4A0A4B0A4B0AF6
:10521C004C0A4C0A4D0A4D0A4E0A4E0A4F0A4F0AC6
:10522C00500A500A510A510A520A520A530A530A96
:10523C00540A540A550A550A560A560A570A570A66
:10524C00580A580A590A590A5A0A5A0A5B0A5B0A36
:10525C005C0A5C0A5D0A5D0A5E0A5E0A5F0A5F0A06
:10526C00600A600A610A610A620A620A630A630AD6
:10527C00640A640A650A650A660A660A670A670AA6
:10528C00680A680A690A690A6A0A6A0A6B0A6B0A76
:10529C006C0A6C0A6D0A6D0A6E0A6E0A6F0A6F0A46
:1052AC00700A700A710A710A720A720A730A730A16
:1052BC00740A740A750A750A760A760A770A770AE6
:1052CC00780A780A790A790A7A0A7A0A7B0A7B0AB6
:1052DC007C0A7C0A7D0A7D0A7E0A7E0A7F0A7F0A86
:1052EC00800A800A810A810A820A820A830A830A56
:1052FC00840A840A850A850A860A860A870A870A26
:10530C00880A880A890A890A8A0A8A0A8B0A8B0AF5
:10531C008C0A8C0A8D0A8D0A8E0A8E0A8F0A8F0AC5
:10532C00900A900A910A910A920A920A930A930A95
:10533C00940A940A950A950A960A960A970A970A65
:10534C00980A980A990A990A9A0A9A0A9B0A9B0A35
:10535C009C0A9C0A9D0A9D0A9E0A9E0A9F0A9F0A05
:10536C00A00AA00AA10AA10AA20AA20AA30AA30AD5
:10537C00A40AA40AA50AA50AA60AA60AA70AA70AA5
:10538C00A80AA80AA90AA90AAA0AAA0AAB0AAB0A75
:10539C00AC0AAC0AAD0AAD0AAE0AAE0AAF0AAF0A45
:1053AC00B00AB00AB10AB10AB20AB20AB30AB30A15
:1053BC00B40AB40AB50AB50AB60AB60AB70AB70AE5
:1053CC00B80AB80AB90AB90ABA0ABA0ABB0ABB0AB5
:1053DC00BC0ABC0ABD0ABD0ABE0ABE0ABF0ABF0A85
:1053EC00C00AC00AC10AC10AC20AC20AC30AC30A55
:1053FC00C40AC40AC50AC50AC60AC60AC70AC70A25
:10540C00C80AC80AC90AC90ACA0ACA0ACB0ACB0AF4
:10541C00CC0ACC0ACD0ACD0ACE0ACE0ACF0ACF0AC4
:10542C00D00AD00AD10AD10AD20AD20AD30AD30A94
:10543C00D40AD40AD50AD50AD60AD60AD70AD70A64
:10544C00D80AD80AD90AD90ADA0ADA0ADB0ADB0A34
:10545C00DC0ADC0ADD0ADD0ADE0ADE0ADF0ADF0A04
:10546C00E00AE00AE10AE10AE20AE20AE30AE30AD4
:10547C00E40AE40AE50AE50AE60AE60AE70AE70AA4
:10548C00E80AE80AE90AE90AEA0AEA0AEB0AEB0A74
:10549C00EC0AEC0AED0AED0AEE0AEE0AEF0AEF0A44
:1054AC00F00AF00AF10AF10AF20AF20AF30AF30A14
:1054BC00F40AF40AF50AF50AF60AF60AF70AF70AE4
:1054CC00F80AF80AF90AF90AFA0AFA0AFB0AFB0AB4
:1054DC00FC0AFC0AFD0AFD0AFE0AFE0AFF0AFF0A84
:1054EC00000B000B010B010B020B020B030B030B4C
:1054FC00040B040B050B050B060B060B070B070B1C
:10550C00080B080B090B090B0A0B0A0B0B0B0B0BEB
:10551C000C0B0C0B0D0B0D0B0E0B0E0B0F0B0F0BBB
:10552C00100B100B110B110B120B120B130B130B8B
:10553C00140B140B150B150B160B160B170B170B5B
:10554C00180B180B190B190B1A0B1A0B1B0B1B0B2B
:10555C001C0B1C0B1D0B1D0B1E0B1E0B1F0B1F0BFB
:10556C00200B200B210B210B220B220B230B230BCB
:10557C00240B240B250B250B260B260B270B270B9B
:10558C00280B280B290B290B2A0B2A0B2B0B2B0B6B
:10559C002C0B2C0B2D0B2D0B2E0B2E0B2F0B2F0B3B
:1055AC00300B300B310B310B320B320B330B330B0B
:1055BC00340B340B350B350B360B360B370B370BDB
:1055CC00380B380B390B390B3A0B3A0B3B0B3B0BAB
:1055DC003C0B3C0B3D0B3D0B3E0B3E0B3F0B3F0B7B
:1055EC00400B400B410B410B420B420B430B430B4B
:1055FC00440B440B450B450B460B460B470B470B1B
:10560C00480B480B490B490B4A0B4A0B4B0B4B0BEA
:10561C004C0B4C0B4D0B4D0B4E0B4E0B4F0B4F0BBA
:10562C00500B500B510B510B520B520B530B530B8A
:10563C00540B540B550B550B560B560B570B570B5A
:10564C00580B580B590B590B5A0B5A0B5B0B5B0B2A
:10565C005C0B5C0B5D0B5D0B5E0B5E0B5F0B5F0BFA
:10566C00600B600B610B610B620B620B630B630BCA
:10567C00640B640B650B650B660B660B670B670B9A
:10568C00680B680B690B690B6A0B6A0B6B0B6B0B6A
:10569C006C0B6C0B6D0B6D0B6E0B6E0B6F0B6F0B3A
:1056AC00700B700B710B710B720B720B730B730B0A
:1056BC00740B740B750B750B760B760B770B770BDA
:1056CC00780B780B790B790B7A0B7A0B7B0B7B0BAA
:1056DC007C0B7C0B7D0B7D0B7E0B7E0B7F0B7F0B7A
:1056EC00800B800B810B810B820B820B830B830B4A
:1056FC00840B840B850B850B860B860B870B870B1A
:10570C00880B880B890B890B8A0B8A0B8B0B8B0BE9
:10571C008C0B8C0B8D0B8D0B8E0B8E0B8F0B8F0BB9
:10572C00900B900B910B910B920B920B930B930B89
:10573C00940B940B950B950B960B960B970B970B59
:10574C00980B980B990B990B9A0B9A0B9B0B9B0B29
:10575C009C0B9C0B9D0B9D0B9E0B9E0B9F0B9F0BF9
:10576C00A00BA00BA10BA10BA20BA20BA30BA30BC9
:10577C00A40BA40BA50BA50BA60BA60BA70BA70B99
:10578C00A80BA80BA90BA90BAA0BAA0BAB0BAB0B69
:10579C00AC0BAC0BAD0BAD0BAE0BAE0BAF0BAF0B39
:1057AC00B00BB00BB10BB10BB20BB20BB30BB30B09
:1057BC00B40BB40BB50BB50BB60BB60BB70BB70BD9
:1057CC00B80BB80BB90BB90BBA0BBA0BBB0BBB0BA9
:1057DC00BC0BBC0BBD0BBD0BBE0BBE0BBF0BBF0B79
:1057EC00C00BC00BC10BC10BC20BC20BC30BC30B49
:1057FC00C40BC40BC50BC50BC60BC60BC70BC70B19
:10580C00C80BC80BC90BC90BCA0BCA0BCB0BCB0BE8
:10581C00CC0BCC0BCD0BCD0BCE0BCE0BCF0BCF0BB8
:10582C00D00BD00BD10BD10BD20BD20BD30BD30B88
:10583C00D40BD40BD50BD50BD60BD60BD70BD70B58
:10584C00D80BD80BD90BD90BDA0BDA0BDB0BDB0B28
:10585C00DC0BDC0BDD0BDD0BDE0BDE0BDF0BDF0BF8
:10586C00E00BE00BE10BE10BE20BE20BE30BE30BC8
:10587C00E40BE40BE50BE50BE60BE60BE70BE70B98
:10588C00E80BE80BE90BE90BEA0BEA0BEB0BEB0B68
:10589C00EC0BEC0BED0BED0BEE0BEE0BEF0BEF0B38
:1058AC00F00BF00BF10BF10BF20BF20BF30BF30B08
:1058BC00F40BF40BF50BF50BF60BF60BF70BF70BD8
:1058CC00F80BF80BF90BF90BFA0BFA0BFB0BFB0BA8
:1058DC00FC0BFC0BFD0BFD0BFE0BFE0BFF0BFF0B78
:1058EC00000C000C010C010C020C020C030C030C40
:1058FC00040C040C050C050C060C060C070C070C10
:10590C00080C080C090C090C0A0C0A0C0B0C0B0CDF
:10591C000C0C0C0C0D0C0D0C0E0C0E0C0F0C0F0CAF
:10592C00100C100C110C110C120C120C130C130C7F
:10593C00140C140C150C150C160C160C170C170C4F
:10594C00180C180C190C190C1A0C1A0C1B0C1B0C1F
:10595C001C0C1C0C1D0C1D0C1E0C1E0C1F0C1F0CEF
:10596C00200C200C210C210C220C220C230C230CBF
:10597C00240C240C250C250C260C260C270C270C8F
:10598C00280C280C290C290C2A0C2A0C2B0C2B0C5F
:10599C002C0C2C0C2D0C2D0C2E0C2E0C2F0C2F0C2F
:1059AC00300C300C310C310C320C320C330C330CFF
:1059BC00340C340C350C350C360C360C370C370CCF
:1059CC00380C380C390C390C3A0C3A0C3B0C3B0C9F
:1059DC003C0C3C0C3D0C3D0C3E0C3E0C3F0C3F0C6F
:1059EC00400C400C410C410C420C420C430C430C3F
:1059FC00440C440C450C450C460C460C470C470C0F
:105A0C00480C480C490C490C4A0C4A0C4B0C4B0CDE
:105A1C004C0C4C0C4D0C4D0C4E0C4E0C4F0C4F0CAE
:105A2C00500C500C510C510C520C520C530C530C7E
:105A3C00540C540C550C550C560C560C570C570C4E
:105A4C00580C580C590C590C5A0C5A0C5B0C5B0C1E
:105A5C005C0C5C0C5D0C5D0C5E0C5E0C5F0C5F0CEE
:105A6C00600C600C610C610C620C620C630C630CBE
:105A7C00640C640C650C650C660C660C670C670C8E
:105A8C00680C680C690C690C6A0C6A0C6B0C6B0C5E
:105A9C006C0C6C0C6D0C6D0C6E0C6E0C6F0C6F0C2E
:105AAC00700C700C710C710C720C720C730C730CFE
:105ABC00740C740C750C750C760C760C770C770CCE
:105ACC00780C780C790C790C7A0C7A0C7B0C7B0C9E
