:020000040800F2
:100000000000022079250008910C0008930C0008DC
:10001000950C0008970C0008990C000800000000DF
:100020000000000000000000000000009B0C000821
:100030009D0C0008000000009F0C0008A10C0008A7
:10004000C9250008C9250008C9250008C9250008D8
:10005000C9250008C925000849060008C925000867
:10006000C9250008C9250008C9250008C9250008B8
:10007000C9250008C9250008C9250008C9250008A8
:10008000A90C0008C9250008C9250008C9250008D1
:10009000C9250008C9250008C9250008C925000888
:1000A000C9250008C9250008C9250008C925000878
:1000B000C9250008C9250008C9250008C925000868
:1000C000C9250008C9250008C9250008C925000858
:1000D000C9250008C9250008C9250008C925000848
:1000E000C9250008C9250008C9250008C925000838
:1000F000C9250008C9250008C9250008C925000828
:10010000C9250008C9250008C9250008C925000817
:10011000C9250008C9250008C9250008C925000807
:10012000C9250008C9250008C9250008C9250008F7
:10013000C92500080000000000000000C9250008D3
:10014000C9250008C9250008C9250008C9250008D7
:10015000C9250008C9250008C9250008C9250008C7
:10016000C9250008C9250008C9250008C9250008B7
:10017000C9250008C9250008C9250008000000009D
:1001800000000000C9250008000000000000000079
:10019000C92500080000000000000000C925000873
:1001A000000000000000000000000000C925000859
:1001B000C9250008C9250008C9250008C925000867
:0401C000C925000845
:1001C40010B5054C237833B9044B13B10448AFF38D
:1001D40000800123237010BD3C18002000000000A3
:1001E4002426000808B5034B1BB103490348AFF3A9
:1001F400008008BD000000004018002024260008EC
:1002040053B94AB9002908BF00281CBF4FF0FF3179
:100214004FF0FF3000F088B9ADF1080C6DE904CE61
:1002240000F006F8DDF804E0DDE9022304B07047CD
:100234002DE9F047089D8E4604468846002B4AD196
:100244008A42174662D9B2FA82F64EB1C6F1200349
:1002540001FA06F820FA03F3B74043EA0808B44069
:100264004FEA174E1FFA87FCB8FBFEF1230C0EFB76
:10027400118843EA084301FB0CF29A4209D9FB189E
:1002840001F1FF3080F0EA809A4240F2E7800239BF
:100294003B449A1AA3B2B2FBFEF00EFB102243EACF
:1002A400024300FB0CFC9C4509D9FB1800F1FF320A
:1002B40080F0D6809C4540F2D3803B44023840EA2B
:1002C4000140A3EB0C0300211DB1F3400022C5E95A
:1002D4000032BDE8F0878B4205D90DB1C5E90001B4
:1002E40000210846F5E7B3FA83F1002946D17345A6
:1002F40002D3824200F20581841A6EEB03020120CC
:100304009046002DE5D0C5E90048E2E7002A00F058
:100314009080B2FA82F6002E40F0A4808A1A030C70
:100324004FEA174E80B2BCB20121B2FBFEFC0EFBB9
:100334001C2243EA024304FB0CF29A4207D9FB183D
:100344000CF1FF3802D29A4200F2E080C4469B1AB4
:10035400B3FBFEF20EFB123340EA034302FB04F448
:100364009C4207D9FB1802F1FF3002D29C4200F2F2
:10037400CA8002461B1B42EA0C40A5E7C1F12006D5
:100384008B4022FA06F71F430EFA01F420FA06F313
:100394002EFA06FE4FEA1749234300FA01F81FFA22
:1003A40087FCBEFBF9F01C0C09FB10EE44EA0E447A
:1003B40000FB0CFEA64502FA01F209D93C1900F132
:1003C400FF3A80F09C80A64540F2998002383C4474
:1003D400A4EB0E041FFA83FEB4FBF9F309FB1344E8
:1003E4004EEA044403FB0CFCA44508D93C1903F170
:1003F400FF3E80F08280A4457FD9023B3C4443EA1F
:100404000040A4EB0C04A0FB02EC64457346E146F7
:1004140062D35FD05DB1B8EB030264EB090404FA64
:1004240006F622FA01F31E43CC40C5E9006400211C
:100434004FE7B1FBF2FC010C41EA0E4180B240EA05
:1004440001423B4638463C46B846BE462026B1FBF0
:10045400F7F1A2EB080241EA0C4166E7014618E70E
:1004640010462CE7C6F120022EFA02F3B740B14041
:1004740020FA02F24FEA174E0A43B3FBFEF8BCB26D
:100484000EFB1833110C41EA034108FB04F9B04098
:1004940089454FEA104380B23ED9791808F1FF3CF0
:1004A40001D289451FD8A1EB0901B1FBFEF909FB73
:1004B40004F80EFB191192B242EA0142424529D2D4
:1004C400BA1809F1FF31C4D24245C2D2A9F10201DE
:1004D4003A44BEE7F0459DD2BEEB02036CEB070C39
:1004E4000138E14696E7A7EB09094944A8F1020C53
:1004F400B1FBFEF909FB04F8DBE773467FE75046DE
:1005040066E70846FDE63B44023A33E7ACF1020CE9
:100514003B441CE749469CE7A1EB0901C446B1FBF7
:10052400FEF909FB04F8C4E7704700BF2DE9F04F5A
:1005340089B00024039404940594069407940094C9
:100544002F4B1A6B42F080021A631A6B02F080027E
:100554000092009A01941A6B42F001021A631A6B1A
:1005640002F001020192019A02941A6B42F0020213
:100574001A631B6B03F002030293029B4FF4404B7C
:10058400CDF80CB001260496DFF87CA003A95046F0
:1005940001F0FAFB4FF44079CDF80C90DFF86C8051
:1005A40003A9404601F0F0FB4FF410470397154DA3
:1005B40003A9284601F0E8FB22465946504601F0BB
:1005C400D3FC22464946404601F0CEFC2246394639
:1005D400284601F0C9FC03964FF48813049305964A
:1005E40003A9284601F0D0FB22460221062001F08F
:1005F4003DFF062001F04AFF09B0BDE8F08F00BFBF
:10060400003802400000024000080240000402409A
:1006140000B583B000210191094B1A6B42F400121A
:100624001A631B6B03F400130193019B0A46102009
:1006340001F01CFF102001F029FF03B05DF804FB5A
:100644000038024070B5012001F096FC01F082FFF1
:100654001B4B1B68C31A312B01D8194B1860194D59
:100664002A68D36823F40073D360174E304601F030
:10067400A8FD164C22780132154B83FB021303EBC1
:100684004303A2EB43032370D9B24FF48073114A9E
:10069400114850F82110304601F05EFD2A68D368F5
:1006A40043F40073D360012000F030FA0B4800F0EB
:1006B40021FA22780A4B53F8220000F01BFA70BD8D
:1006C4004819002000190020581800204C19002057
:1006D400ABAAAA2A3C040040000000203C260008E3
:1006E4001818002072B6FEE700B58FB000230A93F5
:1006F4000B930C930D930893099301930293039323
:10070400049305930693079335484FF080420260A3
:10071400436083604FF0FF32C2600361836100F085
:100724008FFC002850D14FF480530A930AA92C4817
:1007340000F0ECFD002849D1294800F0ADFC002868
:1007440046D100230893099308A9254800F070FFB7
:1007540000283FD10022019202920392059201A93E
:100764001F4800F029FD002836D1002300931D4ABC
:10077400116B41F400111163126B02F40012009228
:10078400009A1948194A02604FF0C0624260402240
:100794008260C3604FF4806202614FF48052426110
:1007A4004FF4804282614FF48072C2614FF4003290
:1007B4000262436201F06AFC80B9094A0A4B53623F
:1007C4009A630FB05DF804FBFFF78CFFFFF78AFF15
:1007D400FFF788FFFFF786FFFFF784FFFFF782FF2D
:1007E4000019002000380240581800208860024098
:1007F40000B58FB000230A930B930C930D930893C9
:100804000993019302930393049305930693079327
:100814001E481F4A0260436083604FF6FF72C26045
:100824000361836100F00CFC28BB4FF480530A93EE
:100834000AA9164800F06AFDF8B9144800F058FCFB
:10084400E8B900230893099308A9104800F0F0FEC2
:10085400B8B96023019300230293039305930822FC
:1008640001A90A4800F0D7FC68B9084800F08AFAE0
:100874000FB05DF804FBFFF735FFFFF733FFFFF719
:1008840031FFFFF72FFFFFF72DFF00BFB81800203F
:100894000004004000B595B03422002107A801F0FF
:1008A40092FE00230293039304930593069300930B
:1008B400194A116C41F080511164126C02F080529B
:1008C4000092009A019315490A6822F4404242F4C6
:1008D40080420A600A6802F440420192019A0222AC
:1008E400079201220A9210220B920D9307A801F09D
:1008F40029F868B90F23029300210391049105910B
:10090400069102A800F0DAFE20B915B05DF804FBE8
:10091400FFF7E8FEFFF7E6FE0038024000700040F3
:1009240010B501F0F1FDFFF7B5FFFFF7FFFDFFF78D
:100934006FFEFFF7D9FEFFF75BFF08210F4800F0B9
:10094400F5FD0F4C0021204600F06EFD4FF480733E
:100954000C4A0D490D4801F0FFFB00F05FF901203E
:1009640000F0D4F80A4800F0C5F80A4800F0C2F8CC
:100974002268D36843F40073D360FEE7B8180020FC
:10098400001900203C0400401814002058180020CE
:100994003C2600084826000882B000EB40000023F3
:1009A400019304E000BF00BF019B01330193019B4D
:1009B4008342F7D302B0704710B51420FFF7ECFF61
:1009C400094CA36943F40043A3611420FFF7E4FF37
:1009D400A36943F00043A3611420FFF7DDFFA3697B
:1009E40043F40043A36110BD0008024010B504465F
:1009F4003D4A936943F48043936110F0800F41D1E1
:100A04003A4A936943F00043936114F0400F40D095
:100A1400364A936943F48053936114F0200F3ED017
:100A2400334A936943F40073936114F0100F3CD07C
:100A34002F4A936943F480739361FFF7BDFF14F069
:100A4400080F38D0294A936943F40043936114F0A2
:100A5400040F36D0254A936943F48053936114F00C
:100A6400020F34D0224A936943F40073936114F063
:100A7400010F32D01E4A936943F480739361FFF7E8
:100A84009BFF10BDA2F50062936943F40043936198
:100A9400BBE7164A936943F080539361BDE7144A58
:100AA400936943F000739361BFE7114A936943F07C
:100AB40080739361C1E70D4A936943F000439361E6
:100AC400C5E70A4A936943F080539361C7E7084A2C
:100AD400936943F000739361C9E7054A936943F04E
:100AE40080739361CBE700BF00080240000002401E
:100AF4000004024038B50546002403E0FFF776FF02
:100B04000134E4B2285D0028F8D138BD10B504469C
:100B14003F4A936943F08043936110F0800F45D1BD
:100B24003C4A936943F00043936114F0400F44D06E
:100B3400384A936943F48053936114F0200F42D0F0
:100B4400354A936943F40073936114F0100F40D055
:100B5400314A936943F480739361FFF72DFF14F0D6
:100B6400080F3CD02B4A936943F40043936114F07B
:100B7400040F3AD0274A936943F48053936114F0E5
:100B8400020F38D0244A936943F40073936114F03C
:100B9400010F36D0204A936943F480739361FFF7C1
:100BA4000BFF40F6B830FFF7F7FE10BDA2F5006268
:100BB400936943F400439361B7E7164A936943F09A
:100BC40080539361B9E7144A936943F000739361C6
:100BD400BBE7114A936943F080739361BDE70D4A03
:100BE400936943F000439361C1E70A4A936943F070
:100BF40080539361C3E7084A936943F00073936198
:100C0400C5E7054A936943F080739361C7E700BF62
:100C140000080240000002400004024008B5194BDD
:100C24001A6B42F001021A631A6B42F002021A6351
:100C34001A6B42F004021A63134A136843F08243A6
:100C4400136002F58062136843F4A023136002F575
:100C54008062136843F0A043136047F23050FFF7FB
:100C64009BFE3320FFF752FF3220FFF74FFF0C208B
:100C7400FFF74CFF2820FFF749FF0120FFF746FF4D
:100C840008BD00BF0038024000000240FEE7FEE756
:100C9400FEE7FEE7FEE770477047704708B501F0CE
:100CA4004DFC08BD08B5024801F09EFA08BD00BF1E
:100CB4005818002082B0002100910B4B5A6C42F46A
:100CC40080425A645A6C02F480420092009A019164
:100CD4001A6C42F080521A641B6C03F08053019327
:100CE400019B02B0704700BF0038024010B582B0CB
:100CF4000368B3F1804F04D01E4A93422CD002B053
:100D040010BD0446002300931B4A116C41F00101FD
:100D14001164126C02F001020092009A1748184AFA
:100D240002604FF0C06242608360C3604FF480622F
:100D340002614FF4805242614FF480428261C36188
:100D44000362436201F0A2F918B90C4B63629C631D
:100D5400D5E7FFF7C7FCF8E700230193064B1A6CAD
:100D640042F002021A641B6C03F002030193019B1C
:100D7400C5E700BF000400400038024058180020B6
:100D84008860024000B587B0002301930293039367
:100D94000493059302680E4B9A4202D007B05DF8A3
:100DA40004FB002300930B4B1A6B42F002021A63FC
:100DB4001B6B03F002030093009B012301930223A6
:100DC4000293059301A9044800F0DEFFE6E700BFA3
:100DD40000040040003802400004024030B4036ABA
:100DE400026A22F0010202624268846924F0730CF0
:100DF4000C6844EA0C0423F0020C8B6843EA0C03ED
:100E0400114DA84203D005F58065A84205D123F011
:100E14000803CD682B4323F004030B4DA84203D0F1
:100E240005F58065A84207D122F440724D6945EA70
:100E3400020C8A6942EA0C02426084614A68426395
:100E4400036230BC704700BF0000014030B4036A45
:100E5400026A22F4807202624268C46924F0730C4C
:100E64000C6844EA0C0523F400738C6843EA0423F9
:100E7400114CA04203D004F58064A04206D123F4AF
:100E84000063CC6843EA042323F480630A4CA04241
:100E940003D004F58064A04207D122F440524C6987
:100EA40042EA04128C6942EA04124260C5614A684B
:100EB400C263036230BC70470000014030B4036A6F
:100EC400026A22F4805202624468C26922F4E64251
:100ED4000D6842EA052223F400538D6843EA053382
:100EE400094DA84203D005F58065A84204D124F435
:100EF40080444D6944EA85144460C2614A680264CE
:100F0400036230BC704700BF0000014010B4036AA4
:100F1400046A24F001040462846924F0F00C4CEAAD
:100F2400021223F00A030B43826103625DF8044B4F
:100F3400704710B4036A046A24F0100404628469DC
:100F440024F4704C4CEA023223F0A00343EA011368
:100F5400826103625DF8044B7047836823F0700379
:100F64000B4343F0070383607047704770470000EA
:100F74000368324A904212D0B0F1804F0FD0A2F5EC
:100F84007C4290420BD002F58062904207D002F579
:100F94008062904203D002F57842904203D123F05C
:100FA40070034A681343254A90422AD0B0F1804F17
:100FB40027D0A2F57C42904223D002F58062904271
:100FC4001FD002F5806290421BD002F57842904215
:100FD40017D002F57052904213D002F5806290420D
:100FE4000FD002F5806290420BD0A2F59832904265
:100FF40007D002F58062904203D002F580629042ED
:1010040003D123F44073CA68134323F080034A696D
:1010140013438A68C2620A688262084A904203D013
:1010240002F58062904201D10A690263026842F0CB
:101034000402026001224261036070470000014023
:1010440040B310B5044690F83D30F3B1022384F860
:101054003D30214651F8040BFFF78AFF012384F841
:10106400463084F83E3084F83F3084F8403084F8C9
:10107400413084F8423084F8433084F8443084F8B2
:10108400453084F83D30002010BD80F83C30FFF737
:101094002DFEDBE70120704740B310B5044690F8FD
:1010A4003D30F3B1022384F83D30214651F8040B5E
:1010B400FFF75EFF012384F8463084F83E3084F85D
:1010C4003F3084F8403084F8413084F8423084F86A
:1010D400433084F8443084F8453084F83D300020AF
:1010E40010BD80F83C30FFF740FFDBE7012070477C
:1010F40040B310B5044690F83D30F3B1022384F8B0
:101104003D30214651F8040BFFF732FF012384F8E8
:10111400463084F83E3084F83F3084F8403084F818
:10112400413084F8423084F8433084F8443084F801
:10113400453084F83D30002010BD80F83C30FFF786
:1011440015FFDBE70120704730B4036A026A22F01E
:10115400100202624468826922F4E6420D6842EA9F
:10116400052223F020038D6843EA0513114DA8429C
:1011740003D005F58065A84206D123F08003CD682D
:1011840043EA051323F040030A4DA84203D005F5B2
:101194008065A84207D124F440644D6944EA85047B
:1011A4008D6944EA8504446082614A68826303620B
:1011B40030BC70470000014090F83C30012B28D02F
:1011C40010B50446012380F83C300C2A1CD8DFE813
:1011D40002F0071B1B1B0C1B1B1B111B1B1B1600EC
:1011E4000068FFF7FBFD00200FE00068FFF7ACFF8D
:1011F40000200AE00068FFF729FE002005E00068EF
:10120400FFF75CFE002000E00120002384F83C305E
:1012140010BD0220704738B590F83C30012B66D0E1
:1012240004460D46012380F83C300C2A5AD8DFE8E6
:1012340002F0075959591B59595930595959440001
:101244000068FFF7CBFD2268936943F008039361BC
:101254002268936923F004039361226893692969DE
:101264000B43936100203EE00068FFF76DFF2268A6
:10127400936943F4006393612268936923F4806360
:10128400936122689369296943EA012393610020E9
:1012940029E00068FFF7DAFD2268D36943F0080308
:1012A400D3612268D36923F00403D3612268D3692C
:1012B40029690B43D361002015E00068FFF7FEFDA8
:1012C4002268D36943F40063D3612268D36923F4A9
:1012D4008063D3612268D369296943EA0123D36116
:1012E400002000E00120002384F83C3038BD0220B7
:1012F400FCE710B4846824F47F4C42EA03220A43D6
:1013040042EA0C0282605DF8044B704790F83C306E
:10131400012B78D010B50446012380F83C30022319
:1013240080F83D300268936823F47F4323F0770309
:1013340093600B68602B4CD023D8402B54D011D829
:10134400202B03D00AD80BB1102B05D119462068E5
:10135400FFF703FE002028E0012026E0302BF5D023
:10136400012022E0502B0AD1CA6849680068FFF7BF
:10137400CDFD50212068FFF7F0FD002015E001208D
:1013840013E0B3F5805F3AD0B3F5005F14D0702B4F
:1013940037D1CB684A6889680068FFF7AAFF2268DA
:1013A400936843F0770393600020012384F83D3071
:1013B400002384F83C3010BDCB684A688968006813
:1013C400FFF797FF2268936843F4804393600020FB
:1013D400EBE7CA6849680068FFF7ABFD6021206845
:1013E400FFF7BBFD0020E0E7CA6849680068FFF723
:1013F4008DFD40212068FFF7B0FD0020D5E70020D7
:10140400D3E70120D1E70220704701F01F014FF01C
:10141400010C0CFA01FC036A23EA0C030362036A5D
:101424008A4013430362704710B5044608460029F6
:1014340042D194F83E30DBB2013B18BF0123002BAC
:101444006ED1002851D1022384F83E300122014696
:101454002068FFF7DAFF2368334A934203D002F58A
:101464008062934203D15A6C42F400425A64236866
:101474002D4A934249D0B3F1804F46D0A2F57C4225
:10148400934242D002F5806293423ED002F58062DC
:1014940093423AD002F57842934236D002F5705224
:1014A400934232D0A2F5943293422ED01A6842F07D
:1014B40001021A60002032E0042908D008290DD066
:1014C40094F84130DBB2013B18BF0123B7E794F82D
:1014D4003F30DBB2013B18BF0123B0E794F8403042
:1014E400DBB2013B18BF0123A9E7042805D0082873
:1014F40007D0022384F84130A8E7022384F83F3060
:10150400A4E7022384F84030A0E79A6802F00702B7
:10151400062A07D01A6842F001021A60002010BDA2
:101524000120FCE70020FAE70000014010B5044662
:101534000846002942D194F83E30DBB2013B18BF83
:101544000123002B6ED1002851D1022384F83E30B0
:10155400012201462068FFF758FF2368334A93426B
:1015640003D002F58062934203D15A6C42F40042E4
:101574005A6423682D4A934249D0B3F1804F46D030
:10158400A2F57C42934242D002F5806293423ED05F
:1015940002F5806293423AD002F57842934236D003
:1015A40002F57052934232D0A2F5943293422ED077
:1015B4001A6842F001021A60002032E0042908D0BF
:1015C40008290DD094F84130DBB2013B18BF012348
:1015D400B7E794F83F30DBB2013B18BF0123B0E713
:1015E40094F84030DBB2013B18BF0123A9E704287B
:1015F40005D0082807D0022384F84130A8E7022345
:1016040084F83F30A4E7022384F84030A0E79A68C6
:1016140002F00702062A07D01A6842F001021A6093
:10162400002010BD0120FCE70020FAE70000014083
:1016340090F83C20012A3DD010B40346012280F8E2
:101644003C20022280F83D2002685068946820F013
:10165400700C086840EA0C0050601A681648824210
:101664001AD0B2F1804F17D0A0F57C40824213D03B
:1016740000F5806082420FD000F5806082420BD07A
:1016840000F57840824207D000F57050824203D0C2
:10169400A0F59430824204D124F0800449682143A7
:1016A4009160012283F83D20002083F83C005DF81E
:1016B400044B70470220704700000140002800F0EE
:1016C4009B8070B50D4604464F4B1B6803F00F0317
:1016D4008B4208D2CBB24C4A1370136803F00F0349
:1016E4008B4240F08B80236813F0020F17D013F065
:1016F400040F04D0454A936843F4E053936023688D
:1017040013F0080F04D0414A936843F46043936094
:101714003E4A936823F0F003A1680B439360236867
:1017240013F0010F32D06368012B21D09A1E012AD5
:1017340025D9364A126812F0020F61D033498A68FB
:1017440022F0030213438B6000F004FF06462F4B84
:101754009B6803F00C036268B3EB820F16D000F0B1
:10176400F9FE801B41F288339842F0D9032042E00D
:10177400264A126812F4003FE0D101203BE0234ADC
:10178400126812F0007FD9D1012034E01E4B1B688F
:1017940003F00F03AB4207D9EAB21B4B1A701B6864
:1017A40003F00F03AB422DD1236813F0040F06D0CE
:1017B400164A936823F4E053E1680B43936023686B
:1017C40013F0080F07D0114A936823F4604321698A
:1017D40043EAC103936000F021F80C4B9B68C3F308
:1017E40003130B4AD35CD8400A4B18600A4B1868A1
:1017F40000F064FE002070BD012070470120FAE76C
:101804000120F8E70120F6E7003C024000380240DE
:1018140088260008381800203418002008B5464BE4
:101824009B6803F00C03082B05D00C2B43D0042B2E
:101834007FD1424819E0404B5A6802F03F025B688E
:1018440013F4800F12D03C4B5968C1F388113B4804
:101854000023A1FB0001FEF7D3FC374B5B68C3F305
:10186400014301335B00B0FBF3F008BD324B586811
:10187400C0F388104FEA401CBCEB000C6EEB0E0E5C
:101884004FEA8E1343EA9C634FEA8C11B1EB0C01CF
:1018940063EB0E03DB0043EA5173C90011EB000C48
:1018A40043F10003990200234FEA8C2041EA9C5142
:1018B400FEF7A6FCD1E7204B5A6802F03F025B68B2
:1018C40013F4800F10D01C4B5968C1F388111B48C6
:1018D4000023A1FB0001FEF793FC174B5B68C3F3E5
:1018E4000273B0FBF3F0C0E7134B5868C0F38810E1
:1018F4004FEA401CBCEB000C6EEB0E0E4FEA8E134D
:1019040043EA9C634FEA8C11B1EB0C0163EB0E03C9
:10191400DB0043EA5173C90011EB000C43F10003EF
:10192400990200234FEA8C2041EA9C51FEF768FC9F
:10193400D3E7034899E700BF0038024040787D01AF
:101944000024F400002800F0018270B582B004463F
:10195400036813F0010F41D0994B9B6803F00C030B
:10196400042B32D0964B9B6803F00C03082B27D032
:10197400934B9B6803F00C030C2B59D06368B3F5AD
:10198400803F5BD0B3F5A02F5ED08D4B1A6822F454
:1019940080321A601A6822F480221A606368002B6D
:1019A4005CD000F0D7FD0546854B1B6813F4003F5F
:1019B40014D100F0CFFD401B6428F5D90320CCE1FD
:1019C4007F4B5B6813F4800FD2D07D4B1B6813F4FC
:1019D400003F03D06368002B00F0BA81236813F042
:1019E400020F60D0764B9B6813F00C0F4AD0744BF7
:1019F4009B6803F00C03082B3FD0714B9B6803F0EA
:101A04000C030C2B69D0E368002B75D06D4B0122BD
:101A14001A6000F09FFD0546694B1B6813F0020F26
:101A240061D100F097FD401B0228F5D9032094E111
:101A3400634B5B6813F4800FA0D0C6E7604A136859
:101A440043F480331360A9E75D4B1A6842F48022A3
:101A54001A601A6842F480321A609FE700F07AFD37
:101A64000546574B1B6813F4003FB7D000F072FDD6
:101A7400401B6428F5D903206FE1514B5B6813F4D4
:101A8400800FBAD14E4B1B6813F0020F03D0E368EA
:101A9400012B40F05F814A4A136823F0F80321695F
:101AA40043EAC1031360236813F0080F49D0636944
:101AB400002B33D0434B0122C3F8802E00F04AFDA3
:101AC40005463F4B5B6F13F0020F3AD100F042FD25
:101AD400401B0228F5D903203FE1394B5B6813F41E
:101AE400800F90D1CEE7364A136823F0F8032169BA
:101AF40043EAC1031360D6E7324B00221A6000F0B8
:101B040029FD05462E4B1B6813F0020FCBD000F0C5
:101B140021FD401B0228F5D903201EE1294B002298
:101B2400C3F8802E00F016FD0546254B5B6F13F0BD
:101B3400020F06D000F00EFD401B0228F5D9032049
:101B44000BE1236813F0040F76D01D4B1B6C13F0CC
:101B5400805F33D100230193194B1A6C42F08052F9
:101B64001A641B6C03F080530193019B0125164BEF
:101B74001B6813F4807F29D0A368012B3AD0052B6E
:101B84003ED00F4B1A6F22F001021A671A6F22F02F
:101B940004021A67A368002B3CD000F0DBFC064665
:101BA400074B1B6F13F0020F45D100F0D3FC801BD1
:101BB40041F288339842F3D90320CEE00025D6E7DA
:101BC4000038024000004742007000406B4A13682E
:101BD40043F48073136000F0BDFC0646674B1B683A
:101BE40013F4807FC8D100F0B5FC801B0228F5D91E
:101BF4000320B2E0624A136F43F001031367C9E79D
:101C04005F4B1A6F42F004021A671A6F42F0010226
:101C14001A67BFE700F09EFC0646594B1B6F13F092
:101C2400020F08D000F096FC801B41F288339842E2
:101C3400F3D9032091E0EDB9A369002B00F08C8067
:101C44004F4A926802F00C02082A54D0022B17D093
:101C54004C4B00221A6600F07DFC0446484B1B687E
:101C640013F0007F45D000F075FC001B0228F5D965
:101C7400032072E0424A136C23F080531364DBE7C1
:101C8400404B00221A6600F065FC05463C4B1B687D
:101C940013F0007F06D000F05DFC401B0228F5D94C
:101CA40003205AE0E369226A1343626A43EA821317
:101CB400A26A5208013A43EA0243E26A43EA02632F
:101CC400226B43EA02732E4A53602E4B01221A669A
:101CD40000F040FC04462A4B1B6813F0007F06D139
:101CE40000F038FC001B0228F5D9032035E0002061
:101CF40033E0002031E0012B31D0214B5B6803F449
:101D04008001E26991422CD103F03F02216A8A42A8
:101D140029D1616A47F6C0721A40B2EB811F24D1FF
:101D240003F44031A26A5208013AB1EB024F1ED1CA
:101D340003F07062E16AB2EB016F1AD103F0E04381
:101D4400226BB3EB027F16D1002006E0012070471E
:101D5400012002E0012000E0002002B070BD01205B
:101D6400FBE70120F9E70120F7E70120F5E701206F
:101D7400F3E70120F1E70120EFE700BF0070004026
:101D8400003802400000474200230F2B00F2E3809A
:101D940070B582B065E085684FEA430E032404FA07
:101DA4000EF425EA0405CC6804FA0EF42C4384608E
:101DB400446824EA02044A68C2F300129A402243A7
:101DC40042605CE0DC08083450F8242003F0070586
:101DD400AD004FF00F0E0EFA05FE22EA0E0E0A6950
:101DE400AA4042EA0E0240F824205CE0062200E009
:101DF400002202FA0EF22A430234574D45F82420F9
:101E0400564A94686FEA0C0224EA0C054E6816F4EC
:101E1400801F01D04CEA0405504CA560E46802EA36
:101E240004054E6816F4001F01D04CEA04054B4C1F
:101E3400E560646802EA04054E6816F4003F01D0C8
:101E44004CEA0405454C6560246822404D6815F44D
:101E5400803F01D04CEA0402404C226001330F2B36
:101E640077D801229A400C6804EA020C32EA04048E
:101E7400F4D14C6804F00304013C012C8BD94A686A
:101E840002F00302032A09D0C4685D000322AA40B9
:101E940024EA02048A68AA402243C2604A6802F023
:101EA4000302022A8ED004684FEA430E032202FA88
:101EB4000EF224EA02044A6802F0030202FA0EF265
:101EC400224302604A6812F4403FC7D000220192C4
:101ED400234A546C44F480445464526C02F48042A7
:101EE4000192019A9C08A51C1B4A52F8255003F044
:101EF400030E4FEA8E0E0F2202FA0EF225EA0205B5
:101F0400184A90423FF474AF02F58062904216D0B2
:101F140002F58062904214D002F58062904212D0A1
:101F240002F58062904210D002F5806290420ED099
:101F340002F5806290423FF459AF072259E701222B
:101F440057E7022255E7032253E7042251E705220B
:101F54004FE702B070BD704700380140003C0140BB
:101F640000380240000002400AB181617047090450
:101F7400816170477047000008B5054B5B690342F7
:101F840000D108BD024B5861FFF7F4FFF9E700BF29
:101F9400003C014030B405682C6824F480242C6093
:101FA400046863608368402B05D003689960036804
:101FB400DA6030BC704703689A600368D960F8E758
:101FC40010B40368D9B210390A4AA2FB01421209BB
:101FD400094CA25CC2655F2907D96FF30903043376
:101FE4008365806D5DF8044B70476FF30903836567
:101FF400F7E700BFABAAAAAA80260008836A826911
:1020040092B9012B0AD0022B02D00BB100207047E9
:10201400C36A13F0807F28D100207047C36AB3F1EC
:10202400C07F24D000207047B2F5005F09D0022B96
:1020340025D9032B25D1C36A13F0807F23D1002037
:102044007047032B03D8DFE803F01404140A0020BC
:102054007047C36A13F0807F0DD100207047C36AB4
:10206400B3F1C07F09D000207047012070470120E0
:1020740070470120704701207047012070470120FC
:1020840070470020704701207047000070B5044677
:1020940000F060FA002C5BD00546022384F835304A
:1020A400002384F834302268136823F0010313609A
:1020B40023681A6812F0010F0AD000F04BFA431B90
:1020C400052BF5D920236365032084F8350070BD02
:1020D4001A68204911406268A0680243E06802431C
:1020E4002069024360690243A0690243E069024334
:1020F400206A02430A43616A04291ED01A602668D2
:10210400756925F00705636A1D43042B07D1A36A8B
:102114001D43E36A1BB12046FFF770FF90B9756158
:102124002046FFF74DFFE26D3F239340836000207C
:102134006065012384F83530C9E7E16A206B014307
:102144000A43DBE740236365012084F83500BEE7DA
:102154000120BCE73F8010F038B50446856D90F847
:10216400340001282BD0012084F8340094F8350081
:10217400C0B2012804D0002384F83430022038BDD2
:10218400022084F83500002060652046FFF702FF36
:10219400E26D3F239340AB602268136843F016035B
:1021A4001360236C23B12268136843F0080313609F
:1021B4002268136843F0010313600020DFE7022064
:1021C400DDE790F83530DBB2022B03D08023436582
:1021D40001207047052380F835300268136823F026
:1021E4000103136000207047F0B583B00446002358
:1021F4000193724B1D68724BA3FB0535AD0A876DC5
:102204003E68C26D08239340334210D003681A68B5
:1022140012F0040F0BD01A6822F004021A60C26D87
:1022240008239340BB60436D43F001034365E26DB3
:1022340001239340334209D02268526912F0800F7F
:1022440004D0BB60636D43F002036365E26D042355
:102254009340334209D02268126812F0020F04D06E
:10226400BB60636D43F004036365E26D1023934028
:10227400334224D02268126812F0080F1FD0BB60CA
:1022840023681A6812F4802F0DD01B6813F4002FF2
:1022940004D1236C9BB12046984710E0A36C73B122
:1022A400204698470BE01A6812F4807F03D11A681D
:1022B40022F008021A60236C0BB120469847E26DA5
:1022C40020239340334255D02268126812F0100F35
:1022D40050D0BB6094F83530DBB2052B0ED02368A8
:1022E4001A6812F4802F33D01B6813F4002F2AD1FC
:1022F400636C002B3ED0204698473BE0226813686D
:1023040023F0160313602268536923F0800353619A
:10231400236CA3B12268136823F008031360E26DF1
:102324003F239340BB60012384F83530002384F8B5
:102334003430236D002B3FD0204698473CE0A36CFB
:10234400002BE7D1EBE7E36BA3B12046984711E0FC
:102354001A6812F4807F09D11A6822F010021A60F8
:10236400012384F83530002384F83430E36B0BB157
:1023740020469847636DFBB1636D13F0010F17D0CE
:10238400052384F835302268136823F001031360B1
:10239400019B01330193AB4204D823681B6813F0FB
:1023A400010FF5D1012384F83530002384F834304B
:1023B400E36C0BB12046984703B0F0BD38180020F9
:1023C400B5814E1B002807DB00F01F0240090123E2
:1023D4009340024A42F82030704700BF00E100E019
:1023E400002808DB0901C9B200F1604000F5614032
:1023F40080F80013704700F00F000901C9B2014BC7
:102404001954704714ED00E000B500F00700C0F166
:10241400070CBCF1040F28BF4FF0040C031D062B5E
:102424000FD9C31E4FF0FF3E0EFA0CF021EA000153
:1024340099400EFA03FE22EA0E0241EA02005DF818
:1024440004FB0023EEE70000074AD36823F4E063AB
:102454001B041B0C000200F4E060034343F0BF6361
:1024640043F40033D360704700ED00E010B5044638
:10247400054BD868C0F30220FFF7C6FF014620468B
:10248400FFF7AEFF10BD00BF00ED00E008B5FFF799
:1024940099FF08BD0138B0F1807F0BD24FF0E023E3
:1024A4005861054AF02182F8231000209861072220
:1024B4001A6170470120704700ED00E010B5044632
:1024C4000E4B1A784FF47A73B3FBF2F30C4A10688C
:1024D400B0FBF3F0FFF7DEFF68B90F2C01D9012040
:1024E4000AE0002221464FF0FF30FFF7BFFF054B03
:1024F4001C60002000E0012010BD00BF3018002047
:10250400381800203418002008B50B4B1A6842F420
:1025140000721A601A6842F480621A601A6842F4FF
:1025240080721A600320FFF78FFF0F20FFF7C6FFAA
:10253400FEF7C0FB002008BD003C0240034A1168BE
:10254400034B1B780B441360704700BF50190020E5
:1025540030180020014B1868704700BF5019002044
:10256400034AD2F8883043F47003C2F888307047C5
:1025740000ED00E0DFF834D0FFF7F2FF0C480D491E
:102584000D4A002302E0D458C4500433C4188C42CA
:10259400F9D30A4A0A4C002301E013600432A24230
:1025A400FBD300F019F8FEF7BBF9704700000220D6
:1025B400000000203C180020A82600083C18002039
:1025C40054190020FEE702440346934200D17047A9
:1025D40003F8011BF9E7000070B50D4D0D4C641BA9
:1025E400A4100026A64209D10B4D0C4C00F018F89B
:1025F400641BA4100026A64205D170BD55F8043B07
:1026040098470136EEE755F8043B98470136F2E760
:10261400A0260008A0260008A0260008A42600087A
:10262400F8B500BFF8BC08BC9E467047F8B500BFBB
:08263400F8BC08BC9E4670478B
:10263C0057617665666F726D3A20000053696E655E
:10264C0000000000536177746F6F74680000000025
:10265C00547269616E67756C617200005069616ECD
:10266C006F00000047756974617200004472756DEB
:10267C0000000000000610160006101600000000F6
:0C268C000000000001020304060708091A
:082698009CDBFF7F0100000044
:0426A000E901000844
:0426A400C501000864
:1026A8001814002018100020180C0020180800200A
:1026B8001804002018000020FF0700008B0000000D
:1026C800720D0000AD0800005A07000097060000D0
:1026D800B2080000C7070000E8070000FF0F00006D
:1026E800AE0C0000F80900004A070000DB060000F5
:1026F8007B080000DC070000000800006D0D0000EA
:10270800680800007E08000024080000FD0700009B
:10271800FB070000FE07000005080000DA020000C1
:102728009C03000015070000F509000017070000CA
:10273800A60800009F070000D80700001307000044
:10274800AB07000033080000FF0700000B0800007B
:10275800F3070000FC070000FA070000D10700009B
:102768009408000031080000FB0700000108000081
:10277800F507000000080000FC070000960F0000A5
:10278800B2080000CF0800002B0800000108000074
:10279800050800000C0800000F080000B90500003B
:1027A8003A080000F1070000FE0700009F0500003E
:1027B8003C05000074040000B007000000010000A0
:1027C8006E030000C2080000A008000021080000F5
:1027D8007007000017080000040800001108000036
:1027E8007B08000006080000090800000608000031
:1027F80046080000FE0700001C0800003B0300001C
:1028080051080000A108000049080000060800005F
:1028180008080000F6070000050800007B0E00000D
:10282800AE07000027080000F8050000BF090000F7
:1028380018070000F807000028080000120600002A
:10284800DD0700001F080000F1070000DF07000097
:1028580004080000F8070000020800005007000004
:10286800C60800002E0500001809000078070000BF
:102878007F080000C707000004080000CA02000023
:1028880000060000DA07000008080000EC07000056
:102898000E080000EC070000120800002D070000D9
:1028A80065080000FC070000DB0700005C0B000067
:1028B800600A000021090000CC080000790F000020
:1028C8005208000084070000F5050000E708000032
:1028D800F9070000DC07000021080000FC0F0000D9
:1028E8007D08000002080000BA050000F908000091
:1028F800C4070000E4070000CB070000E70700005A
:10290800B705000095070000C0070000EA070000AF
:10291800FB070000F9070000CD07000000000000D9
:10292800D6080000C2070000B308000063070000D3
:1029380061080000B007000062080000830800007A
:102948001C080000F807000005080000FD0700004B
:10295800F3070000000800000C0800001D07000035
:1029680054080000E507000029080000EC070000F3
:102978000008000004080000F106000064070000D9
:10298800FD0700008E070000EE0700002208000087
:10299800070800000D0800002B080000C30700000E
:1029A800F207000001080000350F0000BF05000015
:1029B8000B05000058080000B407000000000000E4
:1029C800BD080000BB0700007609000010070000E2
:1029D80057080000410800007D070000910800002A
:1029E800110800001D080000E90700001208000097
:1029F8001308000001080000E30F0000740A00003B
:102A080068080000B007000022080000D90700008D
:102A18000C0800000008000003000000A80C0000DB
:102A280069090000CE0600001D0800000208000029
:102A3800F5070000460800008E060000090800009F
:102A4800D507000013080000FD0700000208000079
:102A58000108000002080000850400000B0A0000BD
:102A68007E040000FC070000300800007C0800001D
:102A7800D2070000BA070000E90F0000330B00007E
:102A880043090000FC070000FC070000F3070000F2
:102A9800F2070000E90700003D070000AF0700004B
:102AA80016080000FE070000C40300001B0B00000E
:102AB800A60A00005E070000B207000086080000B2
:102AC80073070000BF080000390700007A070000FC
:102AD8001B08000069070000B2070000ED070000AE
:102AE80020070000A5080000650700000B0700008C
:102AF8003E060000440700007F0800003907000078
:102B0800A6070000090800009707000094070000C6
:102B1800BC070000A1070000E4070000BA07000096
:102B28002B080000D6060000B0070000C50700000B
:102B3800AF070000C2070000AF070000230700002E
:102B48006E0A0000170700007D080000F00600006C
:102B58002A07000077090000C9060000980800004D
:102B6800010700002D070000730900007A07000024
:102B780081080000D5050000A007000046080000F5
:102B88004C070000B5070000DE070000AD07000095
:102B9800B507000097070000A6070000CA07000055
:102BA800850700001408000039080000B507000078
:102BB80098070000B4070000AD0700006806000091
:102BC800150800008407000056070000560800009A
:102BD80014070000B0070000460800004B0600007C
:102BE80048080000060800007C07000018070000DD
:102BF8008E0A00000F070000DD0600008E080000A6
:102C0800AD070000BE07000099070000B7070000E5
:102C1800A5070000AB070000B4070000B0070000DC
:102C2800CE070000F2070000E706000005080000D4
:102C380064070000A1070000C10700009807000012
:102C4800AC070000560700002608000047070000F0
:102C58007F070000330800003C070000F20700006F
:102C68000C090000B107000080070000FD07000004
:102C78009F060000BB060000AE0600007D060000AF
:102C8800410800006E0700001509000078060000E2
:102C98001C080000DF070000CE0600004C080000FA
:102CA80027060000F7060000790800003F0600002C
:102CB80034090000B906000072070000130500007F
:102CC800A6080000AE080000E80500009208000011
:102CD800900800002D060000FF0700009F08000074
:102CE800930600007A0700008C0800009007000097
:102CF8001D080000C1090000450600003207000059
:102D0800EB070000AA0700008F070000C7070000B4
:102D1800C0070000A8070000B40700004D07000026
:102D2800F1070000000800007D070000D10700003F
:102D3800A4070000AE070000BC0700001A07000047
:102D48008907000068070000340900008C060000AD
:102D580013080000A00700000A070000000900008F
:102D680075060000C70700002E08000029050000AE
:102D780015090000FF0600005B0800004708000076
:102D88008A070000CA070000A9070000A60700007C
:102D9800AA070000BF070000BD070000B406000036
:102DA800650800002E07000049070000D70700004B
:102DB80094070000AE070000B6070000D206000026
:102DC800F5070000F30700002907000009080000C4
:102DD800B90700006D070000F407000001070000B4
:102DE8001007000066070000500700008706000073
:102DF80083080000E7040000B1070000AB070000EB
:102E080095070000C4070000A7070000B0070000EE
:102E1800DF0700008A070000B8070000B1070000BC
:102E280071080000A9070000CD070000170800007E
:102E380070070000AF070000BF070000360700005A
:102E4800C0080000A9060000D707000067080000B6
:102E5800E6060000F90700000308000090070000DC
:102E68001807000007080000AE0600002C07000045
:102E780085090000D5090000020900002F0900009B
:102E88003D060000850700003B080000C106000061
:102E98008D09000094060000470700001E08000086
:102EA8002708000070090000A10600008E0200003B
:102EB80046080000CD0700006D070000D803000099
:102EC800530800005F07000068070000BB07000008
:102ED8006007000095070000500700005607000033
:102EE800750700006F07000054070000AD070000D9
:102EF800FE060000F7060000320700006107000028
:102F0800730800006407000019070000C3060000EA
:102F18008907000065060000F2060000420700006D
:102F2800020900001C07000009070000BA0A000097
:102F38003D0700009B0600006D0700002307000006
:102F48002B0700007607000067070000EE06000068
:102F580050070000640700007E0700006E070000AD
:102F680067070000830700004E07000027060000DF
:102F780063070000660700007D0700000A070000DD
:102F880035080000DC06000010070000710700008B
:102F9800B3090000DC070000160700001107000055
:102FA800F60600002308000064070000280A000055
:102FB800FE060000660700007307000050060000C8
:102FC80080080000FA0600004D080000E80600002E
:102FD800740700008307000045070000360700005B
:102FE8005807000074070000540700000907000094
:102FF80068080000340700002C070000CF06000016
:10300800D0080000790700002E070000F207000032
:10301800CC0600003C0600002C080000C307000096
:10302800C90600007A0700007D070000F6030000CB
:10303800AD060000E8060000DB070000BB07000043
:1030480052070000890700006C070000070700000E
:103058008E0700006F0700005F0700007C07000074
:103068006C0700007807000060070000BD0800003A
:1030780031080000EC0700005B0700006E06000046
:10308800E5050000F8070000760700003307000098
:10309800BE07000039070000730700004F0A000050
:1030A800EE080000BC0700005207000045060000BB
:1030B800CF0600008B0700004707000097080000B4
:1030C800210800006E070000460800008207000083
:1030D800840700005B070000770700003D07000039
:1030E800300700006D070000690700004408000071
:1030F800CC0700004B070000110700005F06000026
:1031080056080000450700001A070000480800009C
:1031180010070000F0060000CE0800001D060000A1
:103128008E0700001A0800003C0700005E0500003A
:1031380075080000B6070000650700006907000071
:10314800420700005907000048070000B7070000C1
:103158005B07000074070000750700007207000095
:103168005E0700005B0700005A070000EA0700003E
:103178001A07000065070000DF0600008908000044
:10318800FB070000CE08000082030000C60500000F
:10319800C70600003707000085080000F506000094
:1031A800710500000307000084060000F106000016
:1031B80073070000B3070000BE020000060B000002
:1031C800A30600005A070000E4070000B00700004B
:1031D8009707000074070000BC0700003F070000C5
:1031E8008007000073070000FF080000B404000017
:1031F800DE0700006B0700003D0700001406000012
:103208002D07000037070000670600006E07000062
:103218006D070000A3060000F10700006608000023
:10322800270700005C0700006A0900009E070000ED
:10323800BD0600008D070000DB0600000C0700003B
:103248004D070000680700009F070000D407000032
:103258005107000089070000590700005F070000B8
:103268006C070000600700005F060000970600007A
:103278006E0700009C060000420A00005208000089
:1032880035070000A9060000F10800000208000048
:103298008207000081070000D302000046050000F5
:1032A800CF08000082070000B70800009708000058
:1032B80056080000C8070000000000001F000000BA
:1032C8003F0000005F0000007F0000009F0000003A
:1032D800BF000000DF000000FF0000001F01000029
:1032E8003F0100005F0100007F0100009F01000016
:1032F800BF010000DF010000FF0100001F02000005
:103308003F0200005F0200007F0200009F020000F1
:10331800BF020000DF020000FF0200001F030000E0
:103328003F0300005F0300007F0300009F030000CD
:10333800BF030000DF030000FF0300001F040000BC
:103348003F0400005F0400007F0400009F040000A9
:10335800BF040000DF040000FF0400001F05000098
:103368003F0500005F0500007F0500009F05000085
:10337800BF050000DF050000FF0500001F06000074
:103388003F0600005F0600007F0600009F06000061
:10339800BF060000DF060000FF0600001F07000050
:1033A8003F0700005F0700007F0700009F0700003D
:1033B800BF070000DF070000FF0700001F0800002C
:1033C8003F0800005F0800007F0800009F08000019
:1033D800BF080000DF080000FF0800001F09000008
:1033E8003F0900005F0900007F0900009F090000F5
:1033F800BF090000DF090000FF0900001F0A0000E4
:103408003F0A00005F0A00007F0A00009F0A0000D0
:10341800BF0A0000DF0A0000FF0A00001F0B0000BF
:103428003F0B00005F0B00007F0B00009F0B0000AC
:10343800BF0B0000DF0B0000FF0B00001F0C00009B
:103448003F0C00005F0C00007F0C00009F0C000088
:10345800BF0C0000DF0C0000FF0C00001F0D000077
:103468003F0D00005F0D00007F0D00009F0D000064
:10347800BF0D0000DF0D0000FF0D00001F0E000053
:103488003F0E00005F0E00007F0E00009F0E000040
:10349800BF0E0000DF0E0000FF0E00001F0F00002F
:1034A8003F0F00005F0F00007F0F00009F0F00001C
:1034B800BF0F0000DF0F0000FF0F0000DF0F00004C
:1034C800BF0F00009F0F00007F0F00005F0F00007C
:1034D8003F0F00001F0F0000FF0E0000DF0E00006E
:1034E800BF0E00009F0E00007F0E00005F0E000060
:1034F8003F0E00001F0E0000FF0D0000DF0D000052
:10350800BF0D00009F0D00007F0D00005F0D000043
:103518003F0D00001F0D0000FF0C0000DF0C000035
:10352800BF0C00009F0C00007F0C00005F0C000027
:103538003F0C00001F0C0000FF0B0000DF0B000019
:10354800BF0B00009F0B00007F0B00005F0B00000B
:103558003F0B00001F0B0000FF0A0000DF0A0000FD
:10356800BF0A00009F0A00007F0A00005F0A0000EF
:103578003F0A00001F0A0000FF090000DF090000E1
:10358800BF0900009F0900007F0900005F090000D3
:103598003F0900001F090000FF080000DF080000C5
:1035A800BF0800009F0800007F0800005F080000B7
:1035B8003F0800001F080000FF070000DF070000A9
:1035C800BF0700009F0700007F0700005F0700009B
:1035D8003F0700001F070000FF060000DF0600008D
:1035E800BF0600009F0600007F0600005F0600007F
:1035F8003F0600001F060000FF050000DF05000071
:10360800BF0500009F0500007F0500005F05000062
:103618003F0500001F050000FF040000DF04000054
:10362800BF0400009F0400007F0400005F04000046
:103638003F0400001F040000FF030000DF03000038
:10364800BF0300009F0300007F0300005F0300002A
:103658003F0300001F030000FF020000DF0200001C
:10366800BF0200009F0200007F0200005F0200000E
:103678003F0200001F020000FF010000DF01000000
:10368800BF0100009F0100007F0100005F010000F2
:103698003F0100001F010000FF000000DF000000E4
:1036A800BF0000009F0000007F0000005F000000D6
:1036B8003F0000001F000000000000001000000094
:1036C8002000000030000000400000005000000012
:1036D8006000000070000000800000009000000002
:1036E800A0000000B0000000C0000000D0000000F2
:1036F800E0000000F00000000001000011010000DF
:1037080021010000310100004101000051010000C9
:1037180061010000710100008101000091010000B9
:10372800A1010000B1010000C1010000D1010000A9
:10373800E1010000F1010000010200001102000097
:103748002202000032020000420200005202000081
:103758006202000072020000820200009202000071
:10376800A2020000B2020000C2020000D202000061
:10377800E2020000F202000002030000120300004F
:10378800220300003303000043030000530300003A
:103798006303000073030000830300009303000029
:1037A800A3030000B3030000C3030000D303000019
:1037B800E3030000F3030000030400001304000007
:1037C80023040000330400004404000054040000F3
:1037D80064040000740400008404000094040000E1
:1037E800A4040000B4040000C4040000D4040000D1
:1037F800E4040000F40400000405000014050000BF
:1038080024050000340500004405000055050000AB
:103818006505000075050000850500009505000098
:10382800A5050000B5050000C5050000D505000088
:10383800E5050000F5050000050600001506000076
:103848002506000035060000450600005506000064
:103858006606000076060000860600009606000050
:10386800A6060000B6060000C6060000D606000040
:10387800E6060000F606000006070000160700002E
:10388800260700003607000046070000560700001C
:103898006607000077070000870700009707000009
:1038A800A7070000B7070000C7070000D7070000F8
:1038B800E7070000F70700000708000017080000E6
:1038C80027080000370800004708000057080000D4
:1038D80067080000770800008808000098080000C2
:1038E800A8080000B8080000C8080000D8080000B0
:1038F800E8080000F808000008090000180900009E
:10390800280900003809000048090000580900008B
:10391800680900007809000088090000990900007A
:10392800A9090000B9090000C9090000D909000067
:10393800E9090000F9090000090A0000190A000055
:10394800290A0000390A0000490A0000590A000043
:10395800690A0000790A0000890A0000990A000033
:10396800AA0A0000BA0A0000CA0A0000DA0A00001F
:10397800EA0A0000FA0A00000A0B00001A0B00000D
:103988002A0B00003A0B00004A0B00005A0B0000FB
:103998006A0B00007A0B00008A0B00009A0B0000EB
:1039A800AA0B0000BB0B0000CB0B0000DB0B0000D8
:1039B800EB0B0000FB0B00000B0C00001B0C0000C5
:1039C8002B0C00003B0C00004B0C00005B0C0000B3
:1039D8006B0C00007B0C00008B0C00009B0C0000A3
:1039E800AB0C0000BB0C0000CC0C0000DC0C000091
:1039F800EC0C0000FC0C00000C0D00001C0D00007D
:103A08002C0D00003C0D00004C0D00005C0D00006A
:103A18006C0D00007C0D00008C0D00009C0D00005A
:103A2800AC0D0000BC0D0000CC0D0000DD0D000049
:103A3800ED0D0000FD0D00000D0E00001D0E000034
:103A48002D0E00003D0E00004D0E00005D0E000022
:103A58006D0E00007D0E00008D0E00009D0E000012
:103A6800AD0E0000BD0E0000CD0E0000DD0E000002
:103A7800EE0E0000FE0E00000E0F00001E0F0000EC
:103A88002E0F00003E0F00004E0F00005E0F0000DA
:103A98006E0F00007E0F00008E0F00009E0F0000CA
:103AA800AE0F0000BE0F0000CE0F0000DE0F0000BA
:103AB800EE0F0000FF0F0000FF07000031080000B4
:103AC8006308000096080000C8080000FA08000013
:103AD8002B0900005D0900008E090000C0090000E4
:103AE800F1090000210A0000510A0000810A0000C3
:103AF800B10A0000E00A00000F0B00003D0B0000B7
:103B08006A0B0000980B0000C40B0000F00B0000CB
:103B18001C0C0000460C0000710C00009A0C000000
:103B2800C30C0000EB0C0000120D0000380D000063
:103B38005E0D0000830D0000A70D0000CA0D0000F7
:103B4800EC0D00000D0E00002E0E00004D0E0000C2
:103B58006C0E0000890E0000A50E0000C10E0000CA
:103B6800DB0E0000F50E00000D0F0000240F000012
:103B78003A0F00004F0F0000630F0000750F0000A0
:103B8800870F0000970F0000A60F0000B40F000079
:103B9800C10F0000CD0F0000D70F0000E00F00009C
:103BA800E80F0000EF0F0000F50F0000F90F00000C
:103BB800FC0F0000FE0F0000FF0F0000FE0F0000CA
:103BC800FC0F0000F90F0000F50F0000EF0F0000D8
:103BD800E80F0000E00F0000D70F0000CD0F000035
:103BE800C10F0000B40F0000A60F0000970F0000DF
:103BF800870F0000750F0000630F00004F0F0000D3
:103C08003A0F0000240F00000D0F0000F50E000011
:103C1800DB0E0000C10E0000A50E0000890E00009A
:103C28006C0E00004D0E00002E0E00000D0E000060
:103C3800EC0D0000CA0D0000A70D0000830D000068
:103C48005E0D0000380D0000120D0000EB0C0000A6
:103C5800C30C00009A0C0000710C0000460C000018
:103C68001C0C0000F00B0000C40B0000980B0000B7
:103C78006A0B00003D0B00000F0B0000E00A00007B
:103C8800B10A0000810A0000510A0000210A000060
:103C9800F1090000C00900008E0900005D0900005C
:103CA8002B090000FA080000C80800009608000068
:103CB8006308000031080000FF070000CD0700007E
:103CC8009B07000068070000360700000407000093
:103CD800D3060000A1060000700600003E060000A2
:103CE8000D060000DD050000AD0500007D050000A3
:103CF8004D0500001E050000EF040000C10400008F
:103D080094040000660400003A0400000E04000059
:103D1800E2030000B80300008D0300006403000004
:103D28003B03000013030000EC020000C602000081
:103D3800A00200007B0200005702000034020000CD
:103D480012020000F1010000D0010000B1010000E2
:103D58009201000075010000590100003D010000BA
:103D68002301000009010000F1000000DA00000052
:103D7800C4000000AF0000009B00000089000000A4
:103D88007700000067000000580000004A000000AB
:103D98003D00000031000000270000001E00000068
:103DA800160000000F0000000900000005000000D8
:103DB80002000000000000000000000000000000F9
:103DC8000200000005000000090000000F000000CC
:103DD800160000001E00000027000000310000004F
:103DE8003D0000004A000000580000006700000085
:103DF80077000000890000009B000000AF00000071
:103E0800C4000000DA000000F10000000901000011
:103E1800230100003D010000590100007501000068
:103E280092010000B1010000D0010000F101000082
:103E38001202000034020000570200007B0200005A
:103E4800A0020000C6020000EC02000013030000FC
:103E58003B030000640300008D030000B80300006A
:103E6800E20300000E0400003A04000066040000AB
:103E780094040000C1040000EF0400001E050000C7
:103E88004D0500007D050000AD050000DD050000C2
:103E98000D0600003E06000070060000A1060000A6
:103EA800D30600000407000036070000680700007A
:103EB8009B070000CD070000482600085026000890
:103EC8005C26000868260008702600087826000886
:0C3ED80001000000100000000024F400B5
:040000050800257951
:00000001FF
