:020000040800F2
:10000000002000205D0D0008B5070008B7070008B4
:1000100000000000000000000000000000000000E0
:10002000000000000000000000000000B907000808
:100030000000000000000000BB070008BD0700082A
:10004000AD0D0008AD0D0008AD0D0008AD0D0008A8
:10005000AD0D0008AD0D0008AD0D0008AD0D000898
:10006000AD0D0008AD0D0008AD0D0008AD0D000888
:10007000AD0D0008AD0D0008AD0D0008AD0D000878
:10008000AD0D0008AD0D000800000000AD0D00082A
:10009000AD0D0008A9030008AD0D0008AD0D000866
:1000A000AD0D0008AD0D0008AD0D0008AD0D000848
:1000B000AD0D000800000000AD0D000800000000BC
:1000C00010B5064C2378002B07D1054B002B02D02E
:1000D000044800E000BF0123237010BD1000002081
:1000E00000000000080E0008044B10B5002B03D0E0
:1000F0000349044800E000BF10BDC04600000000F6
:1001000014000020080E0008002243088B4274D31C
:1001100003098B425FD3030A8B4244D3030B8B4208
:1001200028D3030C8B420DD3FF22090212BA030C11
:100130008B4202D31212090265D0030B8B4219D3F2
:1001400000E0090AC30B8B4201D3CB03C01A524112
:10015000830B8B4201D38B03C01A5241430B8B425A
:1001600001D34B03C01A5241030B8B4201D30B0343
:10017000C01A5241C30A8B4201D3CB02C01A52416A
:10018000830A8B4201D38B02C01A5241430A8B422D
:1001900001D34B02C01A5241030A8B4201D30B0216
:1001A000C01A5241CDD2C3098B4201D3CB01C01A30
:1001B000524183098B4201D38B01C01A524143093A
:1001C0008B4201D34B01C01A524103098B4201D328
:1001D0000B01C01A5241C3088B4201D3CB00C01A95
:1001E000524183088B4201D38B00C01A524143080D
:1001F0008B4201D34B00C01A5241411A00D2014632
:10020000524110467047FFE701B5002000F006F8A4
:1002100002BDC0460029F7D076E770477047C04658
:10022000F0B5DE4657464E464546E0B58BB018223F
:10023000002104A800F0BBFD594B5A698021C90375
:100240000A435A615A690A400392039A5A69802103
:1002500089020A435A615A690A400292029A5A690B
:100260008021C9020A435A615B690B400193019BDB
:100270004C4D0126AE6202239A46AB620233994688
:10028000AB6204339846AB6208339B46AB621033D3
:10029000AB624022AA628021A96204960896902748
:1002A000FF0504A80100380000F08DFA50460490C4
:1002B00000240594089604A80100380000F083FA91
:1002C000484604900594089604A80100380000F000
:1002D0007AFA404604900594089604A80100380074
:1002E00000F071FA0496059606940794089404A801
:1002F0000100280000F067FA504604900596069425
:100300000794089404A80100280000F05CFA48460D
:100310000490059606940794089404A80100280008
:1003200000F051FA4046049005960694079408940C
:1003300004A80100280000F046FA584604900596EB
:1003400006940794089404A80100280000F03BFAE2
:1003500020230493059606940794089404AB19008F
:10036000280000F030FA4022049205960694079483
:10037000089404AB1900280000F025FA80210491AC
:10038000059606940794089404A9280000F01BFA27
:100390000BB0F0BCBB46B246A946A046F0BDC04675
:1003A000001002400004004810B5794800F07DFBC1
:1003B000784B1B78012B03D0022B00D173E010BDCA
:1003C000754C00220121200000F011FB00220221C7
:1003D000200000F00CFB00220421200000F007FBAD
:1003E00000220821200000F002FB00221021200042
:1003F00000F0FDFA00222021200000F0F8FA00228F
:100400004021200000F0F3FA00228021200000F0BB
:10041000EEFA624B1A78072A08D89300604AD3583C
:100420009F46012201215C4800F0E1FA5B4A5D49E8
:10043000137809785B18DBB21370072B2FD0002BD1
:10044000BDD1584B01221A70B9E70122022152484E
:1004500000F0CDFAEAE7012204214F4800F0C7FA84
:10046000E4E7012208214C4800F0C1FADEE701224E
:100470001021494800F0BBFAD8E701222021464864
:1004800000F0B5FAD2E701224021434800F0AFFA6C
:10049000CCE701228021404800F0A9FAC6E7414A92
:1004A000FF211170CBE73C4C01220121200000F01C
:1004B0009EFA01220221200000F099FA0122042173
:1004C000200000F094FA01220821200000F08FFAA9
:1004D00001221021200000F08AFA012220212000B0
:1004E00000F085FA01224021200000F080FA01226C
:1004F0008021200000F07BFA284B1A78072A08D8C0
:100500009300294AD3589F4600220121224800F037
:100510006EFA224A2349137809785B18DBB213700C
:10052000072B30D0002B00D049E71E4B01221A7058
:1005300045E700220221184800F059FAE9E70022B5
:100540000421154800F053FAE3E70022082112487D
:1005500000F04DFADDE7002210210F4800F047FAC5
:10056000D7E7002220210C4800F041FAD1E7002211
:100570004021094800F03BFACBE7002280210648E1
:1005800000F035FAC5E7074AFF211170CAE7C046F7
:10059000300000202D000020000400482C00002026
:1005A000200E000800000020400E000872B6FEE792
:1005B00010B50C480C4B03600C4B43600023836068
:1005C0000B4AC260036143618033836100F064FBC6
:1005D000002804D1074B802292031A6010BDFFF758
:1005E000E5FFC04630000020004401403F1F0000EE
:1005F000E703000000E100E010B51A4A136801218A
:100600008B431360174B1B68DB07FBD4164A136838
:1006100001210B431360144B1B689B07FBD5124B46
:100620001A68F8218A4378390A431A605A68703187
:100630008A435A605A680D490A405A605A68032131
:100640008A435A60084B5B680C221A42FAD1084868
:1006500000F07EFB032000F013F9002800D110BD4C
:10066000FFF7A4FF0020024000100240FFF8FFFF48
:1006700000127A0010B500F02BF9FFF7BDFFFFF76D
:10068000CFFDFFF795FF464800F0B8F942E0444C33
:10069000200000F0E9F9E268424B9A4214D0404B46
:1006A000404ADA603E4C200000F0F6FA200000F0EC
:1006B000A5F990200121C00500F092F90028F8D09A
:1006C000322000F027F92CE0354BF422FF32DA60BB
:1006D000E8E7354B01221A70344B00211970344B76
:1006E0001A702F4C200000F0D7FA200000F086F995
:1006F00090200221C00500F073F90028F8D03220C4
:1007000000F008F914E090200821C00500F068F915
:1007100000282FD090200121C00500F061F90028A9
:10072000B5D090200221C00500F05AF90028D0D0A1
:1007300090200421C00500F053F90028E3D11A4BA2
:1007400002221A70194B05321A70194BF8321A70BE
:10075000134C200000F0A0FA200000F04FF9902088
:100760000421C00500F03CF90028F8D0322000F048
:10077000D1F8C8E70C4B03221A70094C200000F096
:100780008BFA200000F03AF990200821C00500F013
:1007900027F90028F8D0322000F0BCF8BAE7C046AC
:1007A00030000020E70300002D0000202C00002076
:1007B00000000020FEE7FEE77047704710B500F02C
:1007C00097F810BD7047F0B5002216E00B699C4603
:1007D000C4682B006B435E00F618F743B4436646CB
:1007E0005E433443C4604C68022C26D04D680468D4
:1007F0003C406B432343036001320C682300D34029
:100800003BD00123934025001D401C42F4D04B688F
:10081000013B012BDAD88F6883682C006C4366009B
:100820003619B3437C43234383600E68CC68436826
:10083000B343744323434360C8E7FF2D0DD84C698D
:10084000A446066A1C006C436C4325012D1BAE4375
:1008500065466C4334430462C8E74C69A446466A63
:100860002D0A2C006C436C436C4325012D1BAE43B9
:1008700065466C4334434462B8E70020F0BD000095
:1008800010B504000F4B1978FA208000FFF73CFCEC
:1008900001000D4B1868FFF737FC00F09DF80028A9
:1008A0000DD1032C01D901200AE0013000222100E2
:1008B000404200F08DF8054B1C60002000E0012054
:1008C00010BDC04608000020040000200C000020DD
:1008D00010B5064A136810210B4313600320FFF77D
:1008E000CFFF00F007FA002010BDC04600200240F4
:1008F000034A1168034B1B785B1813607047C046AE
:100900007800002008000020014B18687047C0469E
:100910007800002070B50400FFF7F6FF0500631CA7
:1009200002D0044B1B78E418FFF7EEFF401BA042F7
:10093000FAD370BD0800002070B5002811DB8308D1
:10094000134DC0339B005C5903221040C000FC32A1
:1009500016008640B44389010A40824022435A511E
:1009600070BD0F230340083B9B0806339B00094AD8
:10097000944663445C6803221040C000FC321500BA
:100980008540AC4389010A40824022435A60E7E730
:1009900000E100E000ED00E0013880235B049842B4
:1009A0000FD2094A50600948036A1B021B0AC02182
:1009B00009060B4303620023936007331360002092
:1009C00070470120FCE7C04610E000E000ED00E0C9
:1009D00010B5FFF7B1FF10BD10B5FFF7DDFF10BD7B
:1009E00003690B4201D0012070470020FCE7002A78
:1009F00001D0816170478162FCE700003D23C35C48
:100A0000012B26D13C330222C2540268D368012153
:100A10000B43D3600368114A93420FD08022D20562
:100A200093420BD00E4A934208D00E4A934205D00F
:100A30001A6801210A431A6000200BE09968072216
:100A40000A40062A07D01A6801210A431A600020CA
:100A500000E0012070470020FCE7C046002C014068
:100A600000040040004001400268D36801218B432C
:100A7000D3600368196A084A114207D1196A074A04
:100A8000114203D11A6801218A431A603D230122D1
:100A9000C25400207047C0461111000044040000F9
:100AA0007047704770477047704770B5040003681F
:100AB000DE681D69AA070ED5B2070CD50322524283
:100AC0001A610123037703689B699B0751D0FFF7E5
:100AD000E9FF002323776B0712D5730710D523682E
:100AE000052252421A610223237723689A69C023A0
:100AF0009B001A4243D02000FFF7D4FF0023237746
:100B00002B0710D533070ED52368092252421A61EC
:100B1000042323772368DB699B0737D02000FFF786
:100B2000C1FF00232377EB0612D5F30610D5236807
:100B3000112252421A61082323772368DA69C023FD
:100B40009B001A4229D02000FFF7ACFF0023237737
:100B5000EB0701D5F30727D42B0601D533062BD499
:100B60006B0601D573062FD4AD0601D5B60633D476
:100B700070BDFFF796FF2000FFF795FFA9E7200063
:100B8000FFF78FFF2000FFF78EFFB7E72000FFF78A
:100B900088FF2000FFF787FFC3E72000FFF781FFF2
:100BA0002000FFF780FFD1E72368022252421A613A
:100BB0002000FFF775FFCFE72368812252421A61B8
:100BC000200000F096F8CBE72368412252421A61D8
:100BD0002000FFF769FFC7E72368212252421A610C
:100BE000200000F085F8C3E70368244A904206D04D
:100BF0008022D205904202D0214A904203D1702235
:100C000093434A6813431D4A904212D08022D20572
:100C100090420ED01A4A90420BD01A4A904208D005
:100C2000194A904205D0194A904202D0184A90427F
:100C300003D1184A1A40CB681343802293434A6970
:100C4000134303608B68C3620B6883620B4B98424B
:100C500008D00D4B984205D00C4B984202D00C4B5B
:100C6000984201D10B690363012343610269134276
:100C700003D003690122934303617047002C0140B4
:100C800000040040002000400040014000440140BA
:100C900000480140FFFCFFFF70B5041E26D03D2335
:100CA000C35C002B1CD03D2502236355210001C9E4
:100CB000FFF79AFF01234622A354083AA3540132B6
:100CC000A3540132A3540132A3540132A35401327C
:100CD000A3540132A3540132A3546355002070BDC4
:100CE0003C330022C25400F01DF8DCE70120F6E797
:100CF0007047704782B00A4B99690122114399618C
:100D000099690A400092009ADA69802149050A43EC
:100D1000DA61DB690B400193019B02B07047C0466A
:100D20000010024082B00268074B9A4201D002B024
:100D30007047064B9A69802189020A439A619B6930
:100D40000B400193019BF2E7004401400010024078
:100D5000014B18607047C046040000200D488546CE
:100D6000FFF730FD0C480D490D4A002302E0D4582E
:100D7000C4500433C4188C42F9D30A4A0A4C0023E5
:100D800001E013600432A242FBD300F019F8FFF730
:100D900071FCFEE700200020000000201000002071
:100DA000680E0008100000207C000020FEE7030011
:100DB0008218934200D1704719700133F9E700009F
:100DC00070B500260C4C0D4D641BA410A64209D131
:100DD000002600F019F80A4C0A4D641BA410A64224
:100DE00005D170BDB300EB5898470136EEE7B3006C
:100DF000EB5898470136F2E7600E0008600E0008D5
:100E0000640E0008600E0008F8B5C046F8BC08BCC7
:100E10009E467047F8B5C046F8BC08BC9E46704771
:100E2000220400084A04000856040008620400086E
:100E30006E0400087A040008860400089204000882
:100E400008050008320500083E0500084A050008AC
:100E500056050008620500086E0500087A050008BE
:040E6000E90000089D
:040E6400C1000008C1
:100E68000100000000127A000100000004000000E8
:0400000508000D5D85
:00000001FF
